{
  "_format": "hh-sol-artifact-1",
  "contractName": "ClaimContract",
  "sourceName": "contracts/ClaimContract.sol",
  "abi": [
    {
      "inputs": [
        {
          "internalType": "address",
          "name": "_insurancePolicyContractAddress",
          "type": "address"
        },
        {
          "internalType": "address",
          "name": "_vehicleContract",
          "type": "address"
        }
      ],
      "stateMutability": "nonpayable",
      "type": "constructor"
    },
    {
      "anonymous": false,
      "inputs": [
        {
          "indexed": true,
          "internalType": "uint256",
          "name": "claimId",
          "type": "uint256"
        },
        {
          "indexed": false,
          "internalType": "enum ClaimContract.ClaimStatus",
          "name": "status",
          "type": "uint8"
        }
      ],
      "name": "ClaimStatusUpdated",
      "type": "event"
    },
    {
      "anonymous": false,
      "inputs": [
        {
          "indexed": true,
          "internalType": "uint256",
          "name": "claimId",
          "type": "uint256"
        },
        {
          "indexed": true,
          "internalType": "uint256",
          "name": "policyId",
          "type": "uint256"
        },
        {
          "indexed": true,
          "internalType": "address",
          "name": "claimant",
          "type": "address"
        },
        {
          "indexed": false,
          "internalType": "string",
          "name": "description",
          "type": "string"
        }
      ],
      "name": "ClaimSubmitted",
      "type": "event"
    },
    {
      "anonymous": false,
      "inputs": [
        {
          "indexed": true,
          "internalType": "address",
          "name": "previousOwner",
          "type": "address"
        },
        {
          "indexed": true,
          "internalType": "address",
          "name": "newOwner",
          "type": "address"
        }
      ],
      "name": "OwnershipTransferred",
      "type": "event"
    },
    {
      "inputs": [
        {
          "internalType": "uint256",
          "name": "index",
          "type": "uint256"
        },
        {
          "internalType": "uint256",
          "name": "amount",
          "type": "uint256"
        },
        {
          "internalType": "address",
          "name": "_claimerAddress",
          "type": "address"
        }
      ],
      "name": "claimPaid",
      "outputs": [],
      "stateMutability": "payable",
      "type": "function"
    },
    {
      "inputs": [
        {
          "internalType": "uint256",
          "name": "_claimId",
          "type": "uint256"
        }
      ],
      "name": "getClaim",
      "outputs": [
        {
          "internalType": "uint256",
          "name": "policyId",
          "type": "uint256"
        },
        {
          "internalType": "address",
          "name": "claimant",
          "type": "address"
        },
        {
          "internalType": "string",
          "name": "description",
          "type": "string"
        },
        {
          "internalType": "enum ClaimContract.ClaimStatus",
          "name": "status",
          "type": "uint8"
        }
      ],
      "stateMutability": "view",
      "type": "function"
    },
    {
      "inputs": [],
      "name": "listAllClaims",
      "outputs": [
        {
          "components": [
            {
              "internalType": "uint256",
              "name": "claimId",
              "type": "uint256"
            },
            {
              "internalType": "uint256",
              "name": "policyId",
              "type": "uint256"
            },
            {
              "internalType": "address payable",
              "name": "claimant",
              "type": "address"
            },
            {
              "internalType": "string",
              "name": "description",
              "type": "string"
            },
            {
              "internalType": "enum ClaimContract.ClaimStatus",
              "name": "status",
              "type": "uint8"
            }
          ],
          "internalType": "struct ClaimContract.Claim[]",
          "name": "",
          "type": "tuple[]"
        }
      ],
      "stateMutability": "view",
      "type": "function"
    },
    {
      "inputs": [],
      "name": "owner",
      "outputs": [
        {
          "internalType": "address",
          "name": "",
          "type": "address"
        }
      ],
      "stateMutability": "view",
      "type": "function"
    },
    {
      "inputs": [],
      "name": "renounceOwnership",
      "outputs": [],
      "stateMutability": "nonpayable",
      "type": "function"
    },
    {
      "inputs": [
        {
          "internalType": "uint256",
          "name": "_policyId",
          "type": "uint256"
        },
        {
          "internalType": "string",
          "name": "_description",
          "type": "string"
        }
      ],
      "name": "submitClaim",
      "outputs": [],
      "stateMutability": "nonpayable",
      "type": "function"
    },
    {
      "inputs": [
        {
          "internalType": "address",
          "name": "newOwner",
          "type": "address"
        }
      ],
      "name": "transferOwnership",
      "outputs": [],
      "stateMutability": "nonpayable",
      "type": "function"
    },
    {
      "inputs": [
        {
          "internalType": "uint256",
          "name": "_claimId",
          "type": "uint256"
        },
        {
          "internalType": "enum ClaimContract.ClaimStatus",
          "name": "_status",
          "type": "uint8"
        }
      ],
      "name": "updateClaimStatus",
      "outputs": [],
      "stateMutability": "nonpayable",
      "type": "function"
    }
  ],
  "bytecode": "0x608060405260016003553480156200001657600080fd5b50604051620023df380380620023df83398181016040528101906200003c91906200037d565b6200005c62000050620000f760201b60201c565b620000ff60201b60201c565b81600460006101000a81548173ffffffffffffffffffffffffffffffffffffffff021916908373ffffffffffffffffffffffffffffffffffffffff16021790555080600560006101000a81548173ffffffffffffffffffffffffffffffffffffffff021916908373ffffffffffffffffffffffffffffffffffffffff160217905550620000ef33620001c360201b60201c565b5050620004df565b600033905090565b60008060009054906101000a900473ffffffffffffffffffffffffffffffffffffffff169050816000806101000a81548173ffffffffffffffffffffffffffffffffffffffff021916908373ffffffffffffffffffffffffffffffffffffffff1602179055508173ffffffffffffffffffffffffffffffffffffffff168173ffffffffffffffffffffffffffffffffffffffff167f8be0079c531659141344cd1fd0a4f28419497f9722a3daafe3b4186f6b6457e060405160405180910390a35050565b620001d36200025960201b60201c565b600073ffffffffffffffffffffffffffffffffffffffff168173ffffffffffffffffffffffffffffffffffffffff160362000245576040517f08c379a00000000000000000000000000000000000000000000000000000000081526004016200023c906200044b565b60405180910390fd5b6200025681620000ff60201b60201c565b50565b62000269620000f760201b60201c565b73ffffffffffffffffffffffffffffffffffffffff166200028f620002ea60201b60201c565b73ffffffffffffffffffffffffffffffffffffffff1614620002e8576040517f08c379a0000000000000000000000000000000000000000000000000000000008152600401620002df90620004bd565b60405180910390fd5b565b60008060009054906101000a900473ffffffffffffffffffffffffffffffffffffffff16905090565b600080fd5b600073ffffffffffffffffffffffffffffffffffffffff82169050919050565b6000620003458262000318565b9050919050565b620003578162000338565b81146200036357600080fd5b50565b60008151905062000377816200034c565b92915050565b6000806040838503121562000397576200039662000313565b5b6000620003a78582860162000366565b9250506020620003ba8582860162000366565b9150509250929050565b600082825260208201905092915050565b7f4f776e61626c653a206e6577206f776e657220697320746865207a65726f206160008201527f6464726573730000000000000000000000000000000000000000000000000000602082015250565b600062000433602683620003c4565b91506200044082620003d5565b604082019050919050565b60006020820190508181036000830152620004668162000424565b9050919050565b7f4f776e61626c653a2063616c6c6572206973206e6f7420746865206f776e6572600082015250565b6000620004a5602083620003c4565b9150620004b2826200046d565b602082019050919050565b60006020820190508181036000830152620004d88162000496565b9050919050565b611ef080620004ef6000396000f3fe60806040526004361061007b5760003560e01c80638da5cb5b1161004e5780638da5cb5b1461011c578063ab1f5b7c14610147578063ae8e25bd14610170578063f2fde38b1461019b5761007b565b806345b46525146100805780635aef2447146100a95780636a19ffa4146100e9578063715018a614610105575b600080fd5b34801561008c57600080fd5b506100a760048036038101906100a2919061108b565b6101c4565b005b3480156100b557600080fd5b506100d060048036038101906100cb91906110e7565b61061f565b6040516100e0949392919061125a565b60405180910390f35b61010360048036038101906100fe91906112d2565b6107ab565b005b34801561011157600080fd5b5061011a61092d565b005b34801561012857600080fd5b50610131610941565b60405161013e9190611325565b60405180910390f35b34801561015357600080fd5b5061016e60048036038101906101699190611365565b61096a565b005b34801561017c57600080fd5b50610185610a85565b6040516101929190611566565b60405180910390f35b3480156101a757600080fd5b506101c260048036038101906101bd9190611588565b610cb3565b005b6101ce6001610d36565b6000821015610212576040517f08c379a000000000000000000000000000000000000000000000000000000000815260040161020990611601565b60405180910390fd5b6000815111610256576040517f08c379a000000000000000000000000000000000000000000000000000000000815260040161024d9061166d565b60405180910390fd5b60006102626001610d4c565b9050600460009054906101000a900473ffffffffffffffffffffffffffffffffffffffff1673ffffffffffffffffffffffffffffffffffffffff16630fe92cae846040518263ffffffff1660e01b81526004016102bf919061168d565b602060405180830381865afa1580156102dc573d6000803e3d6000fd5b505050506040513d601f19601f8201168201806040525081019061030091906116e0565b61033f576040517f08c379a000000000000000000000000000000000000000000000000000000000815260040161033690611759565b60405180910390fd5b600560009054906101000a900473ffffffffffffffffffffffffffffffffffffffff1673ffffffffffffffffffffffffffffffffffffffff16632d0daec333856040518363ffffffff1660e01b815260040161039c929190611779565b602060405180830381865afa1580156103b9573d6000803e3d6000fd5b505050506040513d601f19601f820116820180604052508101906103dd91906116e0565b61041c576040517f08c379a000000000000000000000000000000000000000000000000000000000815260040161041390611814565b60405180910390fd5b6040518060a001604052808281526020018481526020013373ffffffffffffffffffffffffffffffffffffffff16815260200183815260200160006002811115610469576104686111e3565b5b81525060026000838152602001908152602001600020600082015181600001556020820151816001015560408201518160020160006101000a81548173ffffffffffffffffffffffffffffffffffffffff021916908373ffffffffffffffffffffffffffffffffffffffff16021790555060608201518160030190816104ef9190611a40565b5060808201518160040160006101000a81548160ff0219169083600281111561051b5761051a6111e3565b5b02179055509050503373ffffffffffffffffffffffffffffffffffffffff1683827fbee96127fc856f54721f3e15c7d0f27a7947ed6c05f35a313ef16b5ae6653a838560405161056b9190611b12565b60405180910390a4600460009054906101000a900473ffffffffffffffffffffffffffffffffffffffff1673ffffffffffffffffffffffffffffffffffffffff1663837f574684836040518363ffffffff1660e01b81526004016105d0929190611b34565b600060405180830381600087803b1580156105ea57600080fd5b505af11580156105fe573d6000803e3d6000fd5b505050506003600081548092919061061590611b8c565b9190505550505050565b6000806060600080600260008781526020019081526020016000209050600073ffffffffffffffffffffffffffffffffffffffff168160020160009054906101000a900473ffffffffffffffffffffffffffffffffffffffff1673ffffffffffffffffffffffffffffffffffffffff16036106cf576040517f08c379a00000000000000000000000000000000000000000000000000000000081526004016106c690611c20565b60405180910390fd5b80600101548160020160009054906101000a900473ffffffffffffffffffffffffffffffffffffffff16826003018360040160009054906101000a900460ff1681805461071b90611863565b80601f016020809104026020016040519081016040528092919081815260200182805461074790611863565b80156107945780601f1061076957610100808354040283529160200191610794565b820191906000526020600020905b81548152906001019060200180831161077757829003601f168201915b505050505091509450945094509450509193509193565b6107b3610d5a565b8073ffffffffffffffffffffffffffffffffffffffff166002600085815260200190815260200160002060020160009054906101000a900473ffffffffffffffffffffffffffffffffffffffff1673ffffffffffffffffffffffffffffffffffffffff1614610857576040517f08c379a000000000000000000000000000000000000000000000000000000000815260040161084e90611c8c565b60405180910390fd5b6001600281111561086b5761086a6111e3565b5b6002600085815260200190815260200160002060040160009054906101000a900460ff1660028111156108a1576108a06111e3565b5b146108e1576040517f08c379a00000000000000000000000000000000000000000000000000000000081526004016108d890611d1e565b60405180910390fd5b8073ffffffffffffffffffffffffffffffffffffffff166108fc839081150290604051600060405180830381858888f19350505050158015610927573d6000803e3d6000fd5b50505050565b610935610d5a565b61093f6000610dd8565b565b60008060009054906101000a900473ffffffffffffffffffffffffffffffffffffffff16905090565b610972610d5a565b6000600260008481526020019081526020016000209050600073ffffffffffffffffffffffffffffffffffffffff168160020160009054906101000a900473ffffffffffffffffffffffffffffffffffffffff1673ffffffffffffffffffffffffffffffffffffffff1603610a1c576040517f08c379a0000000000000000000000000000000000000000000000000000000008152600401610a1390611c20565b60405180910390fd5b818160040160006101000a81548160ff02191690836002811115610a4357610a426111e3565b5b0217905550827f2e7de2377c1e6f85a268dbe00519c60d65c9e38570a118be0eb07feb07fc89be83604051610a789190611d3e565b60405180910390a2505050565b60606000610a936001610d4c565b905060008167ffffffffffffffff811115610ab157610ab0610f60565b5b604051908082528060200260200182016040528015610aea57816020015b610ad7610ea4565b815260200190600190039081610acf5790505b50905060008080600090505b84811015610ca857600181610b0b9190611d59565b91506000600260008481526020019081526020016000209050806040518060a001604052908160008201548152602001600182015481526020016002820160009054906101000a900473ffffffffffffffffffffffffffffffffffffffff1673ffffffffffffffffffffffffffffffffffffffff1673ffffffffffffffffffffffffffffffffffffffff168152602001600382018054610baa90611863565b80601f0160208091040260200160405190810160405280929190818152602001828054610bd690611863565b8015610c235780601f10610bf857610100808354040283529160200191610c23565b820191906000526020600020905b815481529060010190602001808311610c0657829003601f168201915b505050505081526020016004820160009054906101000a900460ff166002811115610c5157610c506111e3565b5b6002811115610c6357610c626111e3565b5b81525050858581518110610c7a57610c79611d8d565b5b6020026020010181905250600184610c929190611d59565b9350508080610ca090611b8c565b915050610af6565b508294505050505090565b610cbb610d5a565b600073ffffffffffffffffffffffffffffffffffffffff168173ffffffffffffffffffffffffffffffffffffffff1603610d2a576040517f08c379a0000000000000000000000000000000000000000000000000000000008152600401610d2190611e2e565b60405180910390fd5b610d3381610dd8565b50565b6001816000016000828254019250508190555050565b600081600001549050919050565b610d62610e9c565b73ffffffffffffffffffffffffffffffffffffffff16610d80610941565b73ffffffffffffffffffffffffffffffffffffffff1614610dd6576040517f08c379a0000000000000000000000000000000000000000000000000000000008152600401610dcd90611e9a565b60405180910390fd5b565b60008060009054906101000a900473ffffffffffffffffffffffffffffffffffffffff169050816000806101000a81548173ffffffffffffffffffffffffffffffffffffffff021916908373ffffffffffffffffffffffffffffffffffffffff1602179055508173ffffffffffffffffffffffffffffffffffffffff168173ffffffffffffffffffffffffffffffffffffffff167f8be0079c531659141344cd1fd0a4f28419497f9722a3daafe3b4186f6b6457e060405160405180910390a35050565b600033905090565b6040518060a001604052806000815260200160008152602001600073ffffffffffffffffffffffffffffffffffffffff1681526020016060815260200160006002811115610ef557610ef46111e3565b5b81525090565b6000604051905090565b600080fd5b600080fd5b6000819050919050565b610f2281610f0f565b8114610f2d57600080fd5b50565b600081359050610f3f81610f19565b92915050565b600080fd5b600080fd5b6000601f19601f8301169050919050565b7f4e487b7100000000000000000000000000000000000000000000000000000000600052604160045260246000fd5b610f9882610f4f565b810181811067ffffffffffffffff82111715610fb757610fb6610f60565b5b80604052505050565b6000610fca610efb565b9050610fd68282610f8f565b919050565b600067ffffffffffffffff821115610ff657610ff5610f60565b5b610fff82610f4f565b9050602081019050919050565b82818337600083830152505050565b600061102e61102984610fdb565b610fc0565b90508281526020810184848401111561104a57611049610f4a565b5b61105584828561100c565b509392505050565b600082601f83011261107257611071610f45565b5b813561108284826020860161101b565b91505092915050565b600080604083850312156110a2576110a1610f05565b5b60006110b085828601610f30565b925050602083013567ffffffffffffffff8111156110d1576110d0610f0a565b5b6110dd8582860161105d565b9150509250929050565b6000602082840312156110fd576110fc610f05565b5b600061110b84828501610f30565b91505092915050565b61111d81610f0f565b82525050565b600073ffffffffffffffffffffffffffffffffffffffff82169050919050565b600061114e82611123565b9050919050565b61115e81611143565b82525050565b600081519050919050565b600082825260208201905092915050565b60005b8381101561119e578082015181840152602081019050611183565b60008484015250505050565b60006111b582611164565b6111bf818561116f565b93506111cf818560208601611180565b6111d881610f4f565b840191505092915050565b7f4e487b7100000000000000000000000000000000000000000000000000000000600052602160045260246000fd5b60038110611223576112226111e3565b5b50565b600081905061123482611212565b919050565b600061124482611226565b9050919050565b61125481611239565b82525050565b600060808201905061126f6000830187611114565b61127c6020830186611155565b818103604083015261128e81856111aa565b905061129d606083018461124b565b95945050505050565b6112af81611143565b81146112ba57600080fd5b50565b6000813590506112cc816112a6565b92915050565b6000806000606084860312156112eb576112ea610f05565b5b60006112f986828701610f30565b935050602061130a86828701610f30565b925050604061131b868287016112bd565b9150509250925092565b600060208201905061133a6000830184611155565b92915050565b6003811061134d57600080fd5b50565b60008135905061135f81611340565b92915050565b6000806040838503121561137c5761137b610f05565b5b600061138a85828601610f30565b925050602061139b85828601611350565b9150509250929050565b600081519050919050565b600082825260208201905092915050565b6000819050602082019050919050565b6113da81610f0f565b82525050565b60006113eb82611123565b9050919050565b6113fb816113e0565b82525050565b600082825260208201905092915050565b600061141d82611164565b6114278185611401565b9350611437818560208601611180565b61144081610f4f565b840191505092915050565b61145481611239565b82525050565b600060a08301600083015161147260008601826113d1565b50602083015161148560208601826113d1565b50604083015161149860408601826113f2565b50606083015184820360608601526114b08282611412565b91505060808301516114c5608086018261144b565b508091505092915050565b60006114dc838361145a565b905092915050565b6000602082019050919050565b60006114fc826113a5565b61150681856113b0565b935083602082028501611518856113c1565b8060005b85811015611554578484038952815161153585826114d0565b9450611540836114e4565b925060208a0199505060018101905061151c565b50829750879550505050505092915050565b6000602082019050818103600083015261158081846114f1565b905092915050565b60006020828403121561159e5761159d610f05565b5b60006115ac848285016112bd565b91505092915050565b7f496e76616c696420706f6c696379204944000000000000000000000000000000600082015250565b60006115eb60118361116f565b91506115f6826115b5565b602082019050919050565b6000602082019050818103600083015261161a816115de565b9050919050565b7f4465736372697074696f6e2063616e6e6f7420626520656d7074790000000000600082015250565b6000611657601b8361116f565b915061166282611621565b602082019050919050565b600060208201905081810360008301526116868161164a565b9050919050565b60006020820190506116a26000830184611114565b92915050565b60008115159050919050565b6116bd816116a8565b81146116c857600080fd5b50565b6000815190506116da816116b4565b92915050565b6000602082840312156116f6576116f5610f05565b5b6000611704848285016116cb565b91505092915050565b7f506f6c69637920646f65736e2774206578697374000000000000000000000000600082015250565b600061174360148361116f565b915061174e8261170d565b602082019050919050565b6000602082019050818103600083015261177281611736565b9050919050565b600060408201905061178e6000830185611155565b61179b6020830184611114565b9392505050565b7f596f7520686176656e2774207265676973746572656420666f7220746865736560008201527f20706f6c6963792c20596f752063616e206e6f7420636c61696d000000000000602082015250565b60006117fe603a8361116f565b9150611809826117a2565b604082019050919050565b6000602082019050818103600083015261182d816117f1565b9050919050565b7f4e487b7100000000000000000000000000000000000000000000000000000000600052602260045260246000fd5b6000600282049050600182168061187b57607f821691505b60208210810361188e5761188d611834565b5b50919050565b60008190508160005260206000209050919050565b60006020601f8301049050919050565b600082821b905092915050565b6000600883026118f67fffffffffffffffffffffffffffffffffffffffffffffffffffffffffffffffff826118b9565b61190086836118b9565b95508019841693508086168417925050509392505050565b6000819050919050565b600061193d61193861193384610f0f565b611918565b610f0f565b9050919050565b6000819050919050565b61195783611922565b61196b61196382611944565b8484546118c6565b825550505050565b600090565b611980611973565b61198b81848461194e565b505050565b5b818110156119af576119a4600082611978565b600181019050611991565b5050565b601f8211156119f4576119c581611894565b6119ce846118a9565b810160208510156119dd578190505b6119f16119e9856118a9565b830182611990565b50505b505050565b600082821c905092915050565b6000611a17600019846008026119f9565b1980831691505092915050565b6000611a308383611a06565b9150826002028217905092915050565b611a4982611164565b67ffffffffffffffff811115611a6257611a61610f60565b5b611a6c8254611863565b611a778282856119b3565b600060209050601f831160018114611aaa5760008415611a98578287015190505b611aa28582611a24565b865550611b0a565b601f198416611ab886611894565b60005b82811015611ae057848901518255600182019150602085019450602081019050611abb565b86831015611afd5784890151611af9601f891682611a06565b8355505b6001600288020188555050505b505050505050565b60006020820190508181036000830152611b2c81846111aa565b905092915050565b6000604082019050611b496000830185611114565b611b566020830184611114565b9392505050565b7f4e487b7100000000000000000000000000000000000000000000000000000000600052601160045260246000fd5b6000611b9782610f0f565b91507fffffffffffffffffffffffffffffffffffffffffffffffffffffffffffffffff8203611bc957611bc8611b5d565b5b600182019050919050565b7f436c61696d20646f6573206e6f74206578697374000000000000000000000000600082015250565b6000611c0a60148361116f565b9150611c1582611bd4565b602082019050919050565b60006020820190508181036000830152611c3981611bfd565b9050919050565b7f496e636f727265637420636c61696d616e742061646472657373000000000000600082015250565b6000611c76601a8361116f565b9150611c8182611c40565b602082019050919050565b60006020820190508181036000830152611ca581611c69565b9050919050565b7f436c61696d616e742068617320746f206265206669727374206163636570746560008201527f6400000000000000000000000000000000000000000000000000000000000000602082015250565b6000611d0860218361116f565b9150611d1382611cac565b604082019050919050565b60006020820190508181036000830152611d3781611cfb565b9050919050565b6000602082019050611d53600083018461124b565b92915050565b6000611d6482610f0f565b9150611d6f83610f0f565b9250828201905080821115611d8757611d86611b5d565b5b92915050565b7f4e487b7100000000000000000000000000000000000000000000000000000000600052603260045260246000fd5b7f4f776e61626c653a206e6577206f776e657220697320746865207a65726f206160008201527f6464726573730000000000000000000000000000000000000000000000000000602082015250565b6000611e1860268361116f565b9150611e2382611dbc565b604082019050919050565b60006020820190508181036000830152611e4781611e0b565b9050919050565b7f4f776e61626c653a2063616c6c6572206973206e6f7420746865206f776e6572600082015250565b6000611e8460208361116f565b9150611e8f82611e4e565b602082019050919050565b60006020820190508181036000830152611eb381611e77565b905091905056fea264697066735822122040a6bc8cd7361d20374b463258bb1de4a8400008a7afee79b7a1b265b7ece8db64736f6c63430008120033",
  "linkReferences": {},
  "deployedLinkReferences": {}
}