{
  "_format": "hh-sol-artifact-1",
  "contractName": "VehicleContract",
  "sourceName": "contracts/VehicleContract.sol",
  "abi": [
    {
      "inputs": [
        {
          "internalType": "address",
          "name": "_insurancePolicyContractAddress",
          "type": "address"
        }
      ],
      "stateMutability": "nonpayable",
      "type": "constructor"
    },
    {
      "anonymous": false,
      "inputs": [
        {
          "indexed": true,
          "internalType": "address",
          "name": "owner",
          "type": "address"
        },
        {
          "indexed": false,
          "internalType": "string",
          "name": "licensePlate",
          "type": "string"
        },
        {
          "indexed": false,
          "internalType": "string",
          "name": "model",
          "type": "string"
        }
      ],
      "name": "VehicleCreated",
      "type": "event"
    },
    {
      "inputs": [
        {
          "internalType": "address",
          "name": "policyholder",
          "type": "address"
        },
        {
          "internalType": "uint256",
          "name": "policyId",
          "type": "uint256"
        }
      ],
      "name": "checkVehicle",
      "outputs": [
        {
          "internalType": "bool",
          "name": "",
          "type": "bool"
        }
      ],
      "stateMutability": "view",
      "type": "function"
    },
    {
      "inputs": [
        {
          "internalType": "string",
          "name": "_licensePlate",
          "type": "string"
        },
        {
          "internalType": "uint256",
          "name": "policyId",
          "type": "uint256"
        },
        {
          "internalType": "string",
          "name": "model",
          "type": "string"
        }
      ],
      "name": "createVehicle",
      "outputs": [],
      "stateMutability": "nonpayable",
      "type": "function"
    },
    {
      "inputs": [],
      "name": "getVehicle",
      "outputs": [
        {
          "internalType": "string",
          "name": "",
          "type": "string"
        }
      ],
      "stateMutability": "view",
      "type": "function"
    },
    {
      "inputs": [],
      "name": "listVehicles",
      "outputs": [
        {
          "components": [
            {
              "internalType": "address",
              "name": "vehicleAddress",
              "type": "address"
            },
            {
              "internalType": "string",
              "name": "model",
              "type": "string"
            },
            {
              "internalType": "string",
              "name": "licensePlate",
              "type": "string"
            },
            {
              "internalType": "uint256",
              "name": "policyId",
              "type": "uint256"
            }
          ],
          "internalType": "struct VehicleContract.VehicleInfo[]",
          "name": "",
          "type": "tuple[]"
        }
      ],
      "stateMutability": "view",
      "type": "function"
    },
    {
      "inputs": [
        {
          "internalType": "string",
          "name": "_licensePlate",
          "type": "string"
        }
      ],
      "name": "updateLicensePlate",
      "outputs": [],
      "stateMutability": "nonpayable",
      "type": "function"
    },
    {
      "inputs": [
        {
          "internalType": "address",
          "name": "_owner",
          "type": "address"
        }
      ],
      "name": "vehicleExists",
      "outputs": [
        {
          "internalType": "bool",
          "name": "",
          "type": "bool"
        }
      ],
      "stateMutability": "view",
      "type": "function"
    }
  ],
  "bytecode": "0x60806040523480156200001157600080fd5b5060405162001642380380620016428339818101604052810190620000379190620000e9565b80600260006101000a81548173ffffffffffffffffffffffffffffffffffffffff021916908373ffffffffffffffffffffffffffffffffffffffff160217905550506200011b565b600080fd5b600073ffffffffffffffffffffffffffffffffffffffff82169050919050565b6000620000b18262000084565b9050919050565b620000c381620000a4565b8114620000cf57600080fd5b50565b600081519050620000e381620000b8565b92915050565b6000602082840312156200010257620001016200007f565b5b60006200011284828501620000d2565b91505092915050565b611517806200012b6000396000f3fe608060405234801561001057600080fd5b50600436106100625760003560e01c80632d0daec314610067578063471f38fb14610097578063481a1cbf146100b55780634aa2ca1e146100e55780637237cd6514610101578063cb99ce7f1461011f575b600080fd5b610081600480360381019061007c9190610a4b565b61013b565b60405161008e9190610aa6565b60405180910390f35b61009f610189565b6040516100ac9190610c9b565b60405180910390f35b6100cf60048036038101906100ca9190610cbd565b610491565b6040516100dc9190610aa6565b60405180910390f35b6100ff60048036038101906100fa9190610e1f565b6104ea565b005b6101096107b6565b6040516101169190610ef4565b60405180910390f35b61013960048036038101906101349190610f16565b610887565b005b6000816000808573ffffffffffffffffffffffffffffffffffffffff1673ffffffffffffffffffffffffffffffffffffffff1681526020019081526020016000206003015414905092915050565b6060600060018054905067ffffffffffffffff8111156101ac576101ab610cf4565b5b6040519080825280602002602001820160405280156101e557816020015b6101d2610965565b8152602001906001900390816101ca5790505b50905060005b6001805490508110156104895760006001828154811061020e5761020d610f5f565b5b9060005260206000200160009054906101000a900473ffffffffffffffffffffffffffffffffffffffff16905060008060008373ffffffffffffffffffffffffffffffffffffffff1673ffffffffffffffffffffffffffffffffffffffff168152602001908152602001600020600101805461028990610fbd565b80601f01602080910402602001604051908101604052809291908181526020018280546102b590610fbd565b80156103025780601f106102d757610100808354040283529160200191610302565b820191906000526020600020905b8154815290600101906020018083116102e557829003601f168201915b5050505050905060008060008473ffffffffffffffffffffffffffffffffffffffff1673ffffffffffffffffffffffffffffffffffffffff168152602001908152602001600020600201805461035790610fbd565b80601f016020809104026020016040519081016040528092919081815260200182805461038390610fbd565b80156103d05780601f106103a5576101008083540402835291602001916103d0565b820191906000526020600020905b8154815290600101906020018083116103b357829003601f168201915b5050505050905060008060008573ffffffffffffffffffffffffffffffffffffffff1673ffffffffffffffffffffffffffffffffffffffff16815260200190815260200160002060030154905060405180608001604052808573ffffffffffffffffffffffffffffffffffffffff1681526020018481526020018381526020018281525086868151811061046757610466610f5f565b5b60200260200101819052505050505080806104819061101d565b9150506101eb565b508091505090565b6000806000808473ffffffffffffffffffffffffffffffffffffffff1673ffffffffffffffffffffffffffffffffffffffff16815260200190815260200160002060020180546104e090610fbd565b9050119050919050565b600083511161052e576040517f08c379a0000000000000000000000000000000000000000000000000000000008152600401610525906110b1565b60405180910390fd5b600260009054906101000a900473ffffffffffffffffffffffffffffffffffffffff1673ffffffffffffffffffffffffffffffffffffffff16630fe92cae836040518263ffffffff1660e01b815260040161058991906110e0565b602060405180830381865afa1580156105a6573d6000803e3d6000fd5b505050506040513d601f19601f820116820180604052508101906105ca9190611127565b610609576040517f08c379a0000000000000000000000000000000000000000000000000000000008152600401610600906111a0565b60405180910390fd5b60405180608001604052803373ffffffffffffffffffffffffffffffffffffffff168152602001828152602001848152602001838152506000803373ffffffffffffffffffffffffffffffffffffffff1673ffffffffffffffffffffffffffffffffffffffff16815260200190815260200160002060008201518160000160006101000a81548173ffffffffffffffffffffffffffffffffffffffff021916908373ffffffffffffffffffffffffffffffffffffffff16021790555060208201518160010190816106da919061136c565b5060408201518160020190816106f0919061136c565b50606082015181600301559050506001339080600181540180825580915050600190039060005260206000200160009091909190916101000a81548173ffffffffffffffffffffffffffffffffffffffff021916908373ffffffffffffffffffffffffffffffffffffffff1602179055503373ffffffffffffffffffffffffffffffffffffffff167faff9b281d8eb03326e395df3b5a56bf096ed220048eb76eeba9d9ef0b8b3eb1984836040516107a992919061143e565b60405180910390a2505050565b60606000803373ffffffffffffffffffffffffffffffffffffffff1673ffffffffffffffffffffffffffffffffffffffff168152602001908152602001600020600201805461080490610fbd565b80601f016020809104026020016040519081016040528092919081815260200182805461083090610fbd565b801561087d5780601f106108525761010080835404028352916020019161087d565b820191906000526020600020905b81548152906001019060200180831161086057829003601f168201915b5050505050905090565b60008151116108cb576040517f08c379a00000000000000000000000000000000000000000000000000000000081526004016108c2906110b1565b60405180910390fd5b6108d433610491565b610913576040517f08c379a000000000000000000000000000000000000000000000000000000000815260040161090a906114c1565b60405180910390fd5b806000803373ffffffffffffffffffffffffffffffffffffffff1673ffffffffffffffffffffffffffffffffffffffff1681526020019081526020016000206002019081610961919061136c565b5050565b6040518060800160405280600073ffffffffffffffffffffffffffffffffffffffff1681526020016060815260200160608152602001600081525090565b6000604051905090565b600080fd5b600080fd5b600073ffffffffffffffffffffffffffffffffffffffff82169050919050565b60006109e2826109b7565b9050919050565b6109f2816109d7565b81146109fd57600080fd5b50565b600081359050610a0f816109e9565b92915050565b6000819050919050565b610a2881610a15565b8114610a3357600080fd5b50565b600081359050610a4581610a1f565b92915050565b60008060408385031215610a6257610a616109ad565b5b6000610a7085828601610a00565b9250506020610a8185828601610a36565b9150509250929050565b60008115159050919050565b610aa081610a8b565b82525050565b6000602082019050610abb6000830184610a97565b92915050565b600081519050919050565b600082825260208201905092915050565b6000819050602082019050919050565b610af6816109d7565b82525050565b600081519050919050565b600082825260208201905092915050565b60005b83811015610b36578082015181840152602081019050610b1b565b60008484015250505050565b6000601f19601f8301169050919050565b6000610b5e82610afc565b610b688185610b07565b9350610b78818560208601610b18565b610b8181610b42565b840191505092915050565b610b9581610a15565b82525050565b6000608083016000830151610bb36000860182610aed565b5060208301518482036020860152610bcb8282610b53565b91505060408301518482036040860152610be58282610b53565b9150506060830151610bfa6060860182610b8c565b508091505092915050565b6000610c118383610b9b565b905092915050565b6000602082019050919050565b6000610c3182610ac1565b610c3b8185610acc565b935083602082028501610c4d85610add565b8060005b85811015610c895784840389528151610c6a8582610c05565b9450610c7583610c19565b925060208a01995050600181019050610c51565b50829750879550505050505092915050565b60006020820190508181036000830152610cb58184610c26565b905092915050565b600060208284031215610cd357610cd26109ad565b5b6000610ce184828501610a00565b91505092915050565b600080fd5b600080fd5b7f4e487b7100000000000000000000000000000000000000000000000000000000600052604160045260246000fd5b610d2c82610b42565b810181811067ffffffffffffffff82111715610d4b57610d4a610cf4565b5b80604052505050565b6000610d5e6109a3565b9050610d6a8282610d23565b919050565b600067ffffffffffffffff821115610d8a57610d89610cf4565b5b610d9382610b42565b9050602081019050919050565b82818337600083830152505050565b6000610dc2610dbd84610d6f565b610d54565b905082815260208101848484011115610dde57610ddd610cef565b5b610de9848285610da0565b509392505050565b600082601f830112610e0657610e05610cea565b5b8135610e16848260208601610daf565b91505092915050565b600080600060608486031215610e3857610e376109ad565b5b600084013567ffffffffffffffff811115610e5657610e556109b2565b5b610e6286828701610df1565b9350506020610e7386828701610a36565b925050604084013567ffffffffffffffff811115610e9457610e936109b2565b5b610ea086828701610df1565b9150509250925092565b600082825260208201905092915050565b6000610ec682610afc565b610ed08185610eaa565b9350610ee0818560208601610b18565b610ee981610b42565b840191505092915050565b60006020820190508181036000830152610f0e8184610ebb565b905092915050565b600060208284031215610f2c57610f2b6109ad565b5b600082013567ffffffffffffffff811115610f4a57610f496109b2565b5b610f5684828501610df1565b91505092915050565b7f4e487b7100000000000000000000000000000000000000000000000000000000600052603260045260246000fd5b7f4e487b7100000000000000000000000000000000000000000000000000000000600052602260045260246000fd5b60006002820490506001821680610fd557607f821691505b602082108103610fe857610fe7610f8e565b5b50919050565b7f4e487b7100000000000000000000000000000000000000000000000000000000600052601160045260246000fd5b600061102882610a15565b91507fffffffffffffffffffffffffffffffffffffffffffffffffffffffffffffffff820361105a57611059610fee565b5b600182019050919050565b7f4c6963656e736520706c6174652063616e6e6f7420626520656d707479000000600082015250565b600061109b601d83610eaa565b91506110a682611065565b602082019050919050565b600060208201905081810360008301526110ca8161108e565b9050919050565b6110da81610a15565b82525050565b60006020820190506110f560008301846110d1565b92915050565b61110481610a8b565b811461110f57600080fd5b50565b600081519050611121816110fb565b92915050565b60006020828403121561113d5761113c6109ad565b5b600061114b84828501611112565b91505092915050565b7f506f6c69637920646f65736e2774206578697374000000000000000000000000600082015250565b600061118a601483610eaa565b915061119582611154565b602082019050919050565b600060208201905081810360008301526111b98161117d565b9050919050565b60008190508160005260206000209050919050565b60006020601f8301049050919050565b600082821b905092915050565b6000600883026112227fffffffffffffffffffffffffffffffffffffffffffffffffffffffffffffffff826111e5565b61122c86836111e5565b95508019841693508086168417925050509392505050565b6000819050919050565b600061126961126461125f84610a15565b611244565b610a15565b9050919050565b6000819050919050565b6112838361124e565b61129761128f82611270565b8484546111f2565b825550505050565b600090565b6112ac61129f565b6112b781848461127a565b505050565b5b818110156112db576112d06000826112a4565b6001810190506112bd565b5050565b601f821115611320576112f1816111c0565b6112fa846111d5565b81016020851015611309578190505b61131d611315856111d5565b8301826112bc565b50505b505050565b600082821c905092915050565b600061134360001984600802611325565b1980831691505092915050565b600061135c8383611332565b9150826002028217905092915050565b61137582610afc565b67ffffffffffffffff81111561138e5761138d610cf4565b5b6113988254610fbd565b6113a38282856112df565b600060209050601f8311600181146113d657600084156113c4578287015190505b6113ce8582611350565b865550611436565b601f1984166113e4866111c0565b60005b8281101561140c578489015182556001820191506020850194506020810190506113e7565b868310156114295784890151611425601f891682611332565b8355505b6001600288020188555050505b505050505050565b600060408201905081810360008301526114588185610ebb565b9050818103602083015261146c8184610ebb565b90509392505050565b7f56656869636c6520646f6573206e6f7420657869737400000000000000000000600082015250565b60006114ab601683610eaa565b91506114b682611475565b602082019050919050565b600060208201905081810360008301526114da8161149e565b905091905056fea2646970667358221220312cde193ad4c029fc6d811206d308fa852be16e69bdded4a8b2c5eb6f68728d64736f6c63430008120033",
  "linkReferences": {},
  "deployedLinkReferences": {}
}