{
  "_format": "hh-sol-artifact-1",
  "contractName": "InsurancePolicyContract",
  "sourceName": "contracts/InsurancePolicyContract.sol",
  "abi": [
    {
      "inputs": [],
      "stateMutability": "nonpayable",
      "type": "constructor"
    },
    {
      "anonymous": false,
      "inputs": [
        {
          "indexed": true,
          "internalType": "uint256",
          "name": "policyId",
          "type": "uint256"
        },
        {
          "indexed": true,
          "internalType": "uint256",
          "name": "claimId",
          "type": "uint256"
        }
      ],
      "name": "ClaimAssociated",
      "type": "event"
    },
    {
      "anonymous": false,
      "inputs": [
        {
          "indexed": true,
          "internalType": "address",
          "name": "previousOwner",
          "type": "address"
        },
        {
          "indexed": true,
          "internalType": "address",
          "name": "newOwner",
          "type": "address"
        }
      ],
      "name": "OwnershipTransferred",
      "type": "event"
    },
    {
      "anonymous": false,
      "inputs": [
        {
          "indexed": true,
          "internalType": "uint256",
          "name": "policyId",
          "type": "uint256"
        },
        {
          "indexed": true,
          "internalType": "address",
          "name": "owner",
          "type": "address"
        },
        {
          "indexed": false,
          "internalType": "uint256",
          "name": "premiumAmount",
          "type": "uint256"
        }
      ],
      "name": "PolicyCreated",
      "type": "event"
    },
    {
      "anonymous": false,
      "inputs": [
        {
          "indexed": true,
          "internalType": "uint256",
          "name": "policyId",
          "type": "uint256"
        },
        {
          "indexed": false,
          "internalType": "enum InsurancePolicyContract.PolicyStatus",
          "name": "status",
          "type": "uint8"
        }
      ],
      "name": "PolicyStatusUpdated",
      "type": "event"
    },
    {
      "inputs": [
        {
          "internalType": "uint256",
          "name": "_policyId",
          "type": "uint256"
        },
        {
          "internalType": "uint256",
          "name": "_claimId",
          "type": "uint256"
        }
      ],
      "name": "associateClaim",
      "outputs": [],
      "stateMutability": "nonpayable",
      "type": "function"
    },
    {
      "inputs": [
        {
          "internalType": "uint256",
          "name": "_premiumAmount",
          "type": "uint256"
        },
        {
          "internalType": "string",
          "name": "_dataUrl",
          "type": "string"
        }
      ],
      "name": "createPolicy",
      "outputs": [],
      "stateMutability": "nonpayable",
      "type": "function"
    },
    {
      "inputs": [
        {
          "internalType": "address",
          "name": "_owner",
          "type": "address"
        }
      ],
      "name": "getInsurancePoliciesByOwner",
      "outputs": [
        {
          "internalType": "uint256[]",
          "name": "",
          "type": "uint256[]"
        }
      ],
      "stateMutability": "view",
      "type": "function"
    },
    {
      "inputs": [
        {
          "internalType": "uint256",
          "name": "_policyId",
          "type": "uint256"
        }
      ],
      "name": "getPolicy",
      "outputs": [
        {
          "internalType": "uint256",
          "name": "policyId",
          "type": "uint256"
        },
        {
          "internalType": "address",
          "name": "owner",
          "type": "address"
        },
        {
          "internalType": "uint256",
          "name": "premiumAmount",
          "type": "uint256"
        },
        {
          "internalType": "enum InsurancePolicyContract.PolicyStatus",
          "name": "status",
          "type": "uint8"
        },
        {
          "internalType": "uint256[]",
          "name": "claimIds",
          "type": "uint256[]"
        }
      ],
      "stateMutability": "view",
      "type": "function"
    },
    {
      "inputs": [],
      "name": "listInsurancePolicies",
      "outputs": [
        {
          "components": [
            {
              "internalType": "uint256",
              "name": "policyId",
              "type": "uint256"
            },
            {
              "internalType": "address",
              "name": "owner",
              "type": "address"
            },
            {
              "internalType": "uint256",
              "name": "premiumAmount",
              "type": "uint256"
            },
            {
              "internalType": "string",
              "name": "dataUrl",
              "type": "string"
            },
            {
              "internalType": "enum InsurancePolicyContract.PolicyStatus",
              "name": "status",
              "type": "uint8"
            },
            {
              "internalType": "bool",
              "name": "isRegistered",
              "type": "bool"
            },
            {
              "internalType": "uint256[]",
              "name": "claimIds",
              "type": "uint256[]"
            }
          ],
          "internalType": "struct InsurancePolicyContract.PolicyInfo[]",
          "name": "",
          "type": "tuple[]"
        }
      ],
      "stateMutability": "view",
      "type": "function"
    },
    {
      "inputs": [],
      "name": "owner",
      "outputs": [
        {
          "internalType": "address",
          "name": "",
          "type": "address"
        }
      ],
      "stateMutability": "view",
      "type": "function"
    },
    {
      "inputs": [
        {
          "internalType": "uint256",
          "name": "_policyId",
          "type": "uint256"
        }
      ],
      "name": "policyExists",
      "outputs": [
        {
          "internalType": "bool",
          "name": "",
          "type": "bool"
        }
      ],
      "stateMutability": "view",
      "type": "function"
    },
    {
      "inputs": [],
      "name": "renounceOwnership",
      "outputs": [],
      "stateMutability": "nonpayable",
      "type": "function"
    },
    {
      "inputs": [
        {
          "internalType": "address",
          "name": "newOwner",
          "type": "address"
        }
      ],
      "name": "transferOwnership",
      "outputs": [],
      "stateMutability": "nonpayable",
      "type": "function"
    },
    {
      "inputs": [
        {
          "internalType": "uint256",
          "name": "_policyId",
          "type": "uint256"
        },
        {
          "internalType": "enum InsurancePolicyContract.PolicyStatus",
          "name": "_status",
          "type": "uint8"
        }
      ],
      "name": "updatePolicyStatus",
      "outputs": [],
      "stateMutability": "nonpayable",
      "type": "function"
    }
  ],
  "bytecode": "0x608060405260016003553480156200001657600080fd5b50620000376200002b6200004e60201b60201c565b6200005660201b60201c565b62000048336200011a60201b60201c565b62000385565b600033905090565b60008060009054906101000a900473ffffffffffffffffffffffffffffffffffffffff169050816000806101000a81548173ffffffffffffffffffffffffffffffffffffffff021916908373ffffffffffffffffffffffffffffffffffffffff1602179055508173ffffffffffffffffffffffffffffffffffffffff168173ffffffffffffffffffffffffffffffffffffffff167f8be0079c531659141344cd1fd0a4f28419497f9722a3daafe3b4186f6b6457e060405160405180910390a35050565b6200012a620001b060201b60201c565b600073ffffffffffffffffffffffffffffffffffffffff168173ffffffffffffffffffffffffffffffffffffffff16036200019c576040517f08c379a00000000000000000000000000000000000000000000000000000000081526004016200019390620002f1565b60405180910390fd5b620001ad816200005660201b60201c565b50565b620001c06200004e60201b60201c565b73ffffffffffffffffffffffffffffffffffffffff16620001e66200024160201b60201c565b73ffffffffffffffffffffffffffffffffffffffff16146200023f576040517f08c379a0000000000000000000000000000000000000000000000000000000008152600401620002369062000363565b60405180910390fd5b565b60008060009054906101000a900473ffffffffffffffffffffffffffffffffffffffff16905090565b600082825260208201905092915050565b7f4f776e61626c653a206e6577206f776e657220697320746865207a65726f206160008201527f6464726573730000000000000000000000000000000000000000000000000000602082015250565b6000620002d96026836200026a565b9150620002e6826200027b565b604082019050919050565b600060208201905081810360008301526200030c81620002ca565b9050919050565b7f4f776e61626c653a2063616c6c6572206973206e6f7420746865206f776e6572600082015250565b60006200034b6020836200026a565b9150620003588262000313565b602082019050919050565b600060208201905081810360008301526200037e816200033c565b9050919050565b611c7e80620003956000396000f3fe608060405234801561001057600080fd5b506004361061009e5760003560e01c80638da5cb5b116100665780638da5cb5b1461015d578063b963a5d11461017b578063d367a15714610197578063e005cb3a146101b3578063f2fde38b146101d15761009e565b80630fe92cae146100a35780632b07fce3146100d35780636956e64214610107578063715018a614610137578063837f574614610141575b600080fd5b6100bd60048036038101906100b89190610e8c565b6101ed565b6040516100ca9190610ed4565b60405180910390f35b6100ed60048036038101906100e89190610e8c565b61021a565b6040516100fe959493929190611074565b60405180910390f35b610121600480360381019061011c91906110fa565b6102e4565b60405161012e9190611127565b60405180910390f35b61013f610412565b005b61015b60048036038101906101569190611149565b610426565b005b61016561052e565b6040516101729190611189565b60405180910390f35b610195600480360381019061019091906111c9565b610557565b005b6101b160048036038101906101ac919061134f565b610672565b005b6101bb6108df565b6040516101c8919061162b565b60405180910390f35b6101eb60048036038101906101e691906110fa565b610b80565b005b60006002600083815260200190815260200160002060040160019054906101000a900460ff169050919050565b6000806000806060600060026000888152602001908152602001600020905080600001548160010160009054906101000a900473ffffffffffffffffffffffffffffffffffffffff1682600201548360040160009054906101000a900460ff1684600501808054806020026020016040519081016040528092919081815260200182805480156102c957602002820191906000526020600020905b8154815260200190600101908083116102b5575b50505050509050955095509550955095505091939590929450565b6060600060035467ffffffffffffffff81111561030457610303611224565b5b6040519080825280602002602001820160405280156103325781602001602082028036833780820191505090505b5090506000805b600354811015610404578473ffffffffffffffffffffffffffffffffffffffff166002600083815260200190815260200160002060010160009054906101000a900473ffffffffffffffffffffffffffffffffffffffff1673ffffffffffffffffffffffffffffffffffffffff16036103f15760026000828152602001908152602001600020600001548383815181106103d6576103d561164d565b5b60200260200101818152505081806103ed906116ab565b9250505b80806103fc906116ab565b915050610339565b508082528192505050919050565b61041a610c03565b6104246000610c81565b565b6000600260008481526020019081526020016000209050600073ffffffffffffffffffffffffffffffffffffffff168160010160009054906101000a900473ffffffffffffffffffffffffffffffffffffffff1673ffffffffffffffffffffffffffffffffffffffff16036104d0576040517f08c379a00000000000000000000000000000000000000000000000000000000081526004016104c790611750565b60405180910390fd5b8060050182908060018154018082558091505060019003906000526020600020016000909190919091505581837f6209d5e57427b535a493ae090f045c5a41900a11fa9105e1a4753629e410d33260405160405180910390a3505050565b60008060009054906101000a900473ffffffffffffffffffffffffffffffffffffffff16905090565b61055f610c03565b6000600260008481526020019081526020016000209050600073ffffffffffffffffffffffffffffffffffffffff168160010160009054906101000a900473ffffffffffffffffffffffffffffffffffffffff1673ffffffffffffffffffffffffffffffffffffffff1603610609576040517f08c379a000000000000000000000000000000000000000000000000000000000815260040161060090611750565b60405180910390fd5b818160040160006101000a81548160ff021916908360018111156106305761062f610f3f565b5b0217905550827fddba6ca814ce3f0cb8c9b4b44e5e1891ef8c2857746e6b7453464abc1539209b836040516106659190611770565b60405180910390a2505050565b61067a610c03565b6106846001610d45565b600082116106c7576040517f08c379a00000000000000000000000000000000000000000000000000000000081526004016106be906117fd565b60405180910390fd5b60006106d36001610d5b565b90506040518060e0016040528060035481526020013373ffffffffffffffffffffffffffffffffffffffff1681526020018481526020018381526020016000600181111561072457610723610f3f565b5b8152602001600115158152602001600067ffffffffffffffff81111561074d5761074c611224565b5b60405190808252806020026020018201604052801561077b5781602001602082028036833780820191505090505b50815250600260008381526020019081526020016000206000820151816000015560208201518160010160006101000a81548173ffffffffffffffffffffffffffffffffffffffff021916908373ffffffffffffffffffffffffffffffffffffffff1602179055506040820151816002015560608201518160030190816108029190611a29565b5060808201518160040160006101000a81548160ff0219169083600181111561082e5761082d610f3f565b5b021790555060a08201518160040160016101000a81548160ff02191690831515021790555060c082015181600501908051906020019061086f929190610d71565b509050503373ffffffffffffffffffffffffffffffffffffffff16817f601882301d3e3fce7fe3a99d4bb17ef5b6699b417bdd29f2bfb82e19fcbcb660856040516108ba9190611afb565b60405180910390a3600360008154809291906108d5906116ab565b9190505550505050565b606060006108ed6001610d5b565b905060008167ffffffffffffffff81111561090b5761090a611224565b5b60405190808252806020026020018201604052801561094457816020015b610931610dbe565b8152602001906001900390816109295790505b50905060008080600090505b84811015610b75576001816109659190611b16565b91506000600260008481526020019081526020016000209050806040518060e0016040529081600082015481526020016001820160009054906101000a900473ffffffffffffffffffffffffffffffffffffffff1673ffffffffffffffffffffffffffffffffffffffff1673ffffffffffffffffffffffffffffffffffffffff16815260200160028201548152602001600382018054610a049061184c565b80601f0160208091040260200160405190810160405280929190818152602001828054610a309061184c565b8015610a7d5780601f10610a5257610100808354040283529160200191610a7d565b820191906000526020600020905b815481529060010190602001808311610a6057829003601f168201915b505050505081526020016004820160009054906101000a900460ff166001811115610aab57610aaa610f3f565b5b6001811115610abd57610abc610f3f565b5b81526020016004820160019054906101000a900460ff1615151515815260200160058201805480602002602001604051908101604052809291908181526020018280548015610b2b57602002820191906000526020600020905b815481526020019060010190808311610b17575b505050505081525050858581518110610b4757610b4661164d565b5b6020026020010181905250600184610b5f9190611b16565b9350508080610b6d906116ab565b915050610950565b508294505050505090565b610b88610c03565b600073ffffffffffffffffffffffffffffffffffffffff168173ffffffffffffffffffffffffffffffffffffffff1603610bf7576040517f08c379a0000000000000000000000000000000000000000000000000000000008152600401610bee90611bbc565b60405180910390fd5b610c0081610c81565b50565b610c0b610d69565b73ffffffffffffffffffffffffffffffffffffffff16610c2961052e565b73ffffffffffffffffffffffffffffffffffffffff1614610c7f576040517f08c379a0000000000000000000000000000000000000000000000000000000008152600401610c7690611c28565b60405180910390fd5b565b60008060009054906101000a900473ffffffffffffffffffffffffffffffffffffffff169050816000806101000a81548173ffffffffffffffffffffffffffffffffffffffff021916908373ffffffffffffffffffffffffffffffffffffffff1602179055508173ffffffffffffffffffffffffffffffffffffffff168173ffffffffffffffffffffffffffffffffffffffff167f8be0079c531659141344cd1fd0a4f28419497f9722a3daafe3b4186f6b6457e060405160405180910390a35050565b6001816000016000828254019250508190555050565b600081600001549050919050565b600033905090565b828054828255906000526020600020908101928215610dad579160200282015b82811115610dac578251825591602001919060010190610d91565b5b509050610dba9190610e25565b5090565b6040518060e0016040528060008152602001600073ffffffffffffffffffffffffffffffffffffffff168152602001600081526020016060815260200160006001811115610e0f57610e0e610f3f565b5b8152602001600015158152602001606081525090565b5b80821115610e3e576000816000905550600101610e26565b5090565b6000604051905090565b600080fd5b600080fd5b6000819050919050565b610e6981610e56565b8114610e7457600080fd5b50565b600081359050610e8681610e60565b92915050565b600060208284031215610ea257610ea1610e4c565b5b6000610eb084828501610e77565b91505092915050565b60008115159050919050565b610ece81610eb9565b82525050565b6000602082019050610ee96000830184610ec5565b92915050565b610ef881610e56565b82525050565b600073ffffffffffffffffffffffffffffffffffffffff82169050919050565b6000610f2982610efe565b9050919050565b610f3981610f1e565b82525050565b7f4e487b7100000000000000000000000000000000000000000000000000000000600052602160045260246000fd5b60028110610f7f57610f7e610f3f565b5b50565b6000819050610f9082610f6e565b919050565b6000610fa082610f82565b9050919050565b610fb081610f95565b82525050565b600081519050919050565b600082825260208201905092915050565b6000819050602082019050919050565b610feb81610e56565b82525050565b6000610ffd8383610fe2565b60208301905092915050565b6000602082019050919050565b600061102182610fb6565b61102b8185610fc1565b935061103683610fd2565b8060005b8381101561106757815161104e8882610ff1565b975061105983611009565b92505060018101905061103a565b5085935050505092915050565b600060a0820190506110896000830188610eef565b6110966020830187610f30565b6110a36040830186610eef565b6110b06060830185610fa7565b81810360808301526110c28184611016565b90509695505050505050565b6110d781610f1e565b81146110e257600080fd5b50565b6000813590506110f4816110ce565b92915050565b6000602082840312156111105761110f610e4c565b5b600061111e848285016110e5565b91505092915050565b600060208201905081810360008301526111418184611016565b905092915050565b600080604083850312156111605761115f610e4c565b5b600061116e85828601610e77565b925050602061117f85828601610e77565b9150509250929050565b600060208201905061119e6000830184610f30565b92915050565b600281106111b157600080fd5b50565b6000813590506111c3816111a4565b92915050565b600080604083850312156111e0576111df610e4c565b5b60006111ee85828601610e77565b92505060206111ff858286016111b4565b9150509250929050565b600080fd5b600080fd5b6000601f19601f8301169050919050565b7f4e487b7100000000000000000000000000000000000000000000000000000000600052604160045260246000fd5b61125c82611213565b810181811067ffffffffffffffff8211171561127b5761127a611224565b5b80604052505050565b600061128e610e42565b905061129a8282611253565b919050565b600067ffffffffffffffff8211156112ba576112b9611224565b5b6112c382611213565b9050602081019050919050565b82818337600083830152505050565b60006112f26112ed8461129f565b611284565b90508281526020810184848401111561130e5761130d61120e565b5b6113198482856112d0565b509392505050565b600082601f83011261133657611335611209565b5b81356113468482602086016112df565b91505092915050565b6000806040838503121561136657611365610e4c565b5b600061137485828601610e77565b925050602083013567ffffffffffffffff81111561139557611394610e51565b5b6113a185828601611321565b9150509250929050565b600081519050919050565b600082825260208201905092915050565b6000819050602082019050919050565b6113e081610f1e565b82525050565b600081519050919050565b600082825260208201905092915050565b60005b83811015611420578082015181840152602081019050611405565b60008484015250505050565b6000611437826113e6565b61144181856113f1565b9350611451818560208601611402565b61145a81611213565b840191505092915050565b61146e81610f95565b82525050565b61147d81610eb9565b82525050565b600082825260208201905092915050565b600061149f82610fb6565b6114a98185611483565b93506114b483610fd2565b8060005b838110156114e55781516114cc8882610ff1565b97506114d783611009565b9250506001810190506114b8565b5085935050505092915050565b600060e08301600083015161150a6000860182610fe2565b50602083015161151d60208601826113d7565b5060408301516115306040860182610fe2565b5060608301518482036060860152611548828261142c565b915050608083015161155d6080860182611465565b5060a083015161157060a0860182611474565b5060c083015184820360c08601526115888282611494565b9150508091505092915050565b60006115a183836114f2565b905092915050565b6000602082019050919050565b60006115c1826113ab565b6115cb81856113b6565b9350836020820285016115dd856113c7565b8060005b8581101561161957848403895281516115fa8582611595565b9450611605836115a9565b925060208a019950506001810190506115e1565b50829750879550505050505092915050565b6000602082019050818103600083015261164581846115b6565b905092915050565b7f4e487b7100000000000000000000000000000000000000000000000000000000600052603260045260246000fd5b7f4e487b7100000000000000000000000000000000000000000000000000000000600052601160045260246000fd5b60006116b682610e56565b91507fffffffffffffffffffffffffffffffffffffffffffffffffffffffffffffffff82036116e8576116e761167c565b5b600182019050919050565b600082825260208201905092915050565b7f506f6c69637920646f6573206e6f742065786973740000000000000000000000600082015250565b600061173a6015836116f3565b915061174582611704565b602082019050919050565b600060208201905081810360008301526117698161172d565b9050919050565b60006020820190506117856000830184610fa7565b92915050565b7f5072656d69756d20616d6f756e74206d7573742062652067726561746572207460008201527f68616e207a65726f000000000000000000000000000000000000000000000000602082015250565b60006117e76028836116f3565b91506117f28261178b565b604082019050919050565b60006020820190508181036000830152611816816117da565b9050919050565b7f4e487b7100000000000000000000000000000000000000000000000000000000600052602260045260246000fd5b6000600282049050600182168061186457607f821691505b6020821081036118775761187661181d565b5b50919050565b60008190508160005260206000209050919050565b60006020601f8301049050919050565b600082821b905092915050565b6000600883026118df7fffffffffffffffffffffffffffffffffffffffffffffffffffffffffffffffff826118a2565b6118e986836118a2565b95508019841693508086168417925050509392505050565b6000819050919050565b600061192661192161191c84610e56565b611901565b610e56565b9050919050565b6000819050919050565b6119408361190b565b61195461194c8261192d565b8484546118af565b825550505050565b600090565b61196961195c565b611974818484611937565b505050565b5b818110156119985761198d600082611961565b60018101905061197a565b5050565b601f8211156119dd576119ae8161187d565b6119b784611892565b810160208510156119c6578190505b6119da6119d285611892565b830182611979565b50505b505050565b600082821c905092915050565b6000611a00600019846008026119e2565b1980831691505092915050565b6000611a1983836119ef565b9150826002028217905092915050565b611a32826113e6565b67ffffffffffffffff811115611a4b57611a4a611224565b5b611a55825461184c565b611a6082828561199c565b600060209050601f831160018114611a935760008415611a81578287015190505b611a8b8582611a0d565b865550611af3565b601f198416611aa18661187d565b60005b82811015611ac957848901518255600182019150602085019450602081019050611aa4565b86831015611ae65784890151611ae2601f8916826119ef565b8355505b6001600288020188555050505b505050505050565b6000602082019050611b106000830184610eef565b92915050565b6000611b2182610e56565b9150611b2c83610e56565b9250828201905080821115611b4457611b4361167c565b5b92915050565b7f4f776e61626c653a206e6577206f776e657220697320746865207a65726f206160008201527f6464726573730000000000000000000000000000000000000000000000000000602082015250565b6000611ba66026836116f3565b9150611bb182611b4a565b604082019050919050565b60006020820190508181036000830152611bd581611b99565b9050919050565b7f4f776e61626c653a2063616c6c6572206973206e6f7420746865206f776e6572600082015250565b6000611c126020836116f3565b9150611c1d82611bdc565b602082019050919050565b60006020820190508181036000830152611c4181611c05565b905091905056fea2646970667358221220b758f984500ace5d365b2218818cc80f27853e0fb5b31487b443f6161ae7c8ac64736f6c63430008120033",
  "linkReferences": {},
  "deployedLinkReferences": {}
}