{
  "_format": "hh-sol-artifact-1",
  "contractName": "ClaimContract",
  "sourceName": "contracts/ClaimContract.sol",
  "abi": [
    {
      "inputs": [
        {
          "internalType": "address",
          "name": "_insurancePolicyContractAddress",
          "type": "address"
        }
      ],
      "stateMutability": "nonpayable",
      "type": "constructor"
    },
    {
      "anonymous": false,
      "inputs": [
        {
          "indexed": true,
          "internalType": "uint256",
          "name": "claimId",
          "type": "uint256"
        },
        {
          "indexed": false,
          "internalType": "enum ClaimContract.ClaimStatus",
          "name": "status",
          "type": "uint8"
        }
      ],
      "name": "ClaimStatusUpdated",
      "type": "event"
    },
    {
      "anonymous": false,
      "inputs": [
        {
          "indexed": true,
          "internalType": "uint256",
          "name": "claimId",
          "type": "uint256"
        },
        {
          "indexed": true,
          "internalType": "uint256",
          "name": "policyId",
          "type": "uint256"
        },
        {
          "indexed": true,
          "internalType": "address",
          "name": "claimant",
          "type": "address"
        },
        {
          "indexed": false,
          "internalType": "string",
          "name": "description",
          "type": "string"
        }
      ],
      "name": "ClaimSubmitted",
      "type": "event"
    },
    {
      "anonymous": false,
      "inputs": [
        {
          "indexed": true,
          "internalType": "address",
          "name": "previousOwner",
          "type": "address"
        },
        {
          "indexed": true,
          "internalType": "address",
          "name": "newOwner",
          "type": "address"
        }
      ],
      "name": "OwnershipTransferred",
      "type": "event"
    },
    {
      "inputs": [
        {
          "internalType": "uint256",
          "name": "_claimId",
          "type": "uint256"
        }
      ],
      "name": "getClaim",
      "outputs": [
        {
          "internalType": "uint256",
          "name": "policyId",
          "type": "uint256"
        },
        {
          "internalType": "address",
          "name": "claimant",
          "type": "address"
        },
        {
          "internalType": "string",
          "name": "description",
          "type": "string"
        },
        {
          "internalType": "enum ClaimContract.ClaimStatus",
          "name": "status",
          "type": "uint8"
        }
      ],
      "stateMutability": "view",
      "type": "function"
    },
    {
      "inputs": [],
      "name": "listAllClaims",
      "outputs": [
        {
          "components": [
            {
              "internalType": "uint256",
              "name": "claimId",
              "type": "uint256"
            },
            {
              "internalType": "uint256",
              "name": "policyId",
              "type": "uint256"
            },
            {
              "internalType": "address",
              "name": "claimant",
              "type": "address"
            },
            {
              "internalType": "string",
              "name": "description",
              "type": "string"
            },
            {
              "internalType": "enum ClaimContract.ClaimStatus",
              "name": "status",
              "type": "uint8"
            }
          ],
          "internalType": "struct ClaimContract.Claim[]",
          "name": "",
          "type": "tuple[]"
        }
      ],
      "stateMutability": "view",
      "type": "function"
    },
    {
      "inputs": [],
      "name": "owner",
      "outputs": [
        {
          "internalType": "address",
          "name": "",
          "type": "address"
        }
      ],
      "stateMutability": "view",
      "type": "function"
    },
    {
      "inputs": [],
      "name": "renounceOwnership",
      "outputs": [],
      "stateMutability": "nonpayable",
      "type": "function"
    },
    {
      "inputs": [
        {
          "internalType": "uint256",
          "name": "_policyId",
          "type": "uint256"
        },
        {
          "internalType": "string",
          "name": "_description",
          "type": "string"
        }
      ],
      "name": "submitClaim",
      "outputs": [],
      "stateMutability": "nonpayable",
      "type": "function"
    },
    {
      "inputs": [
        {
          "internalType": "address",
          "name": "newOwner",
          "type": "address"
        }
      ],
      "name": "transferOwnership",
      "outputs": [],
      "stateMutability": "nonpayable",
      "type": "function"
    },
    {
      "inputs": [
        {
          "internalType": "uint256",
          "name": "_claimId",
          "type": "uint256"
        },
        {
          "internalType": "enum ClaimContract.ClaimStatus",
          "name": "_status",
          "type": "uint8"
        }
      ],
      "name": "updateClaimStatus",
      "outputs": [],
      "stateMutability": "nonpayable",
      "type": "function"
    }
  ],
  "bytecode": "0x60806040523480156200001157600080fd5b5060405162001fa038038062001fa0833981810160405281019062000037919062000336565b620000576200004b620000b060201b60201c565b620000b860201b60201c565b80600360006101000a81548173ffffffffffffffffffffffffffffffffffffffff021916908373ffffffffffffffffffffffffffffffffffffffff160217905550620000a9336200017c60201b60201c565b5062000483565b600033905090565b60008060009054906101000a900473ffffffffffffffffffffffffffffffffffffffff169050816000806101000a81548173ffffffffffffffffffffffffffffffffffffffff021916908373ffffffffffffffffffffffffffffffffffffffff1602179055508173ffffffffffffffffffffffffffffffffffffffff168173ffffffffffffffffffffffffffffffffffffffff167f8be0079c531659141344cd1fd0a4f28419497f9722a3daafe3b4186f6b6457e060405160405180910390a35050565b6200018c6200021260201b60201c565b600073ffffffffffffffffffffffffffffffffffffffff168173ffffffffffffffffffffffffffffffffffffffff1603620001fe576040517f08c379a0000000000000000000000000000000000000000000000000000000008152600401620001f590620003ef565b60405180910390fd5b6200020f81620000b860201b60201c565b50565b62000222620000b060201b60201c565b73ffffffffffffffffffffffffffffffffffffffff1662000248620002a360201b60201c565b73ffffffffffffffffffffffffffffffffffffffff1614620002a1576040517f08c379a0000000000000000000000000000000000000000000000000000000008152600401620002989062000461565b60405180910390fd5b565b60008060009054906101000a900473ffffffffffffffffffffffffffffffffffffffff16905090565b600080fd5b600073ffffffffffffffffffffffffffffffffffffffff82169050919050565b6000620002fe82620002d1565b9050919050565b6200031081620002f1565b81146200031c57600080fd5b50565b600081519050620003308162000305565b92915050565b6000602082840312156200034f576200034e620002cc565b5b60006200035f848285016200031f565b91505092915050565b600082825260208201905092915050565b7f4f776e61626c653a206e6577206f776e657220697320746865207a65726f206160008201527f6464726573730000000000000000000000000000000000000000000000000000602082015250565b6000620003d760268362000368565b9150620003e48262000379565b604082019050919050565b600060208201905081810360008301526200040a81620003c8565b9050919050565b7f4f776e61626c653a2063616c6c6572206973206e6f7420746865206f776e6572600082015250565b60006200044960208362000368565b9150620004568262000411565b602082019050919050565b600060208201905081810360008301526200047c816200043a565b9050919050565b611b0d80620004936000396000f3fe608060405234801561001057600080fd5b506004361061007d5760003560e01c80638da5cb5b1161005b5780638da5cb5b146100db578063ab1f5b7c146100f9578063ae8e25bd14610115578063f2fde38b146101335761007d565b806345b46525146100825780635aef24471461009e578063715018a6146100d1575b600080fd5b61009c60048036038101906100979190610d8b565b61014f565b005b6100b860048036038101906100b39190610de7565b6104fc565b6040516100c89493929190610f5a565b60405180910390f35b6100d9610688565b005b6100e361069c565b6040516100f09190610fa6565b60405180910390f35b610113600480360381019061010e9190610fe6565b6106c5565b005b61011d6107e0565b60405161012a91906111d5565b60405180910390f35b61014d60048036038101906101489190611223565b6109d7565b005b6000821015610193576040517f08c379a000000000000000000000000000000000000000000000000000000000815260040161018a9061129c565b60405180910390fd5b60008151116101d7576040517f08c379a00000000000000000000000000000000000000000000000000000000081526004016101ce90611308565b60405180910390fd5b600360009054906101000a900473ffffffffffffffffffffffffffffffffffffffff1673ffffffffffffffffffffffffffffffffffffffff16632b07fce3836040518263ffffffff1660e01b81526004016102329190611328565b600060405180830381865afa15801561024f573d6000803e3d6000fd5b505050506040513d6000823e3d601f19601f82011682018060405250810190610278919061145a565b50505050503373ffffffffffffffffffffffffffffffffffffffff1661029c61069c565b73ffffffffffffffffffffffffffffffffffffffff16146102f2576040517f08c379a00000000000000000000000000000000000000000000000000000000081526004016102e990611563565b60405180910390fd5b6040518060a0016040528060025481526020018381526020013373ffffffffffffffffffffffffffffffffffffffff1681526020018281526020016000600281111561034157610340610ee3565b5b815250600160006002548152602001908152602001600020600082015181600001556020820151816001015560408201518160020160006101000a81548173ffffffffffffffffffffffffffffffffffffffff021916908373ffffffffffffffffffffffffffffffffffffffff16021790555060608201518160030190816103c9919061178f565b5060808201518160040160006101000a81548160ff021916908360028111156103f5576103f4610ee3565b5b02179055509050503373ffffffffffffffffffffffffffffffffffffffff16826002547fbee96127fc856f54721f3e15c7d0f27a7947ed6c05f35a313ef16b5ae6653a83846040516104479190611861565b60405180910390a4600360009054906101000a900473ffffffffffffffffffffffffffffffffffffffff1673ffffffffffffffffffffffffffffffffffffffff1663837f5746836002546040518363ffffffff1660e01b81526004016104ae929190611883565b600060405180830381600087803b1580156104c857600080fd5b505af11580156104dc573d6000803e3d6000fd5b50505050600260008154809291906104f3906118db565b91905055505050565b6000806060600080600160008781526020019081526020016000209050600073ffffffffffffffffffffffffffffffffffffffff168160020160009054906101000a900473ffffffffffffffffffffffffffffffffffffffff1673ffffffffffffffffffffffffffffffffffffffff16036105ac576040517f08c379a00000000000000000000000000000000000000000000000000000000081526004016105a39061196f565b60405180910390fd5b80600101548160020160009054906101000a900473ffffffffffffffffffffffffffffffffffffffff16826003018360040160009054906101000a900460ff168180546105f8906115b2565b80601f0160208091040260200160405190810160405280929190818152602001828054610624906115b2565b80156106715780601f1061064657610100808354040283529160200191610671565b820191906000526020600020905b81548152906001019060200180831161065457829003601f168201915b505050505091509450945094509450509193509193565b610690610a5a565b61069a6000610ad8565b565b60008060009054906101000a900473ffffffffffffffffffffffffffffffffffffffff16905090565b6106cd610a5a565b6000600160008481526020019081526020016000209050600073ffffffffffffffffffffffffffffffffffffffff168160020160009054906101000a900473ffffffffffffffffffffffffffffffffffffffff1673ffffffffffffffffffffffffffffffffffffffff1603610777576040517f08c379a000000000000000000000000000000000000000000000000000000000815260040161076e9061196f565b60405180910390fd5b818160040160006101000a81548160ff0219169083600281111561079e5761079d610ee3565b5b0217905550827f2e7de2377c1e6f85a268dbe00519c60d65c9e38570a118be0eb07feb07fc89be836040516107d3919061198f565b60405180910390a2505050565b6060600060025467ffffffffffffffff811115610800576107ff610c60565b5b60405190808252806020026020018201604052801561083957816020015b610826610ba4565b81526020019060019003908161081e5790505b50905060005b6002548110156109cf57600160008281526020019081526020016000206040518060a001604052908160008201548152602001600182015481526020016002820160009054906101000a900473ffffffffffffffffffffffffffffffffffffffff1673ffffffffffffffffffffffffffffffffffffffff1673ffffffffffffffffffffffffffffffffffffffff1681526020016003820180546108e1906115b2565b80601f016020809104026020016040519081016040528092919081815260200182805461090d906115b2565b801561095a5780601f1061092f5761010080835404028352916020019161095a565b820191906000526020600020905b81548152906001019060200180831161093d57829003601f168201915b505050505081526020016004820160009054906101000a900460ff16600281111561098857610987610ee3565b5b600281111561099a57610999610ee3565b5b815250508282815181106109b1576109b06119aa565b5b602002602001018190525080806109c7906118db565b91505061083f565b508091505090565b6109df610a5a565b600073ffffffffffffffffffffffffffffffffffffffff168173ffffffffffffffffffffffffffffffffffffffff1603610a4e576040517f08c379a0000000000000000000000000000000000000000000000000000000008152600401610a4590611a4b565b60405180910390fd5b610a5781610ad8565b50565b610a62610b9c565b73ffffffffffffffffffffffffffffffffffffffff16610a8061069c565b73ffffffffffffffffffffffffffffffffffffffff1614610ad6576040517f08c379a0000000000000000000000000000000000000000000000000000000008152600401610acd90611ab7565b60405180910390fd5b565b60008060009054906101000a900473ffffffffffffffffffffffffffffffffffffffff169050816000806101000a81548173ffffffffffffffffffffffffffffffffffffffff021916908373ffffffffffffffffffffffffffffffffffffffff1602179055508173ffffffffffffffffffffffffffffffffffffffff168173ffffffffffffffffffffffffffffffffffffffff167f8be0079c531659141344cd1fd0a4f28419497f9722a3daafe3b4186f6b6457e060405160405180910390a35050565b600033905090565b6040518060a001604052806000815260200160008152602001600073ffffffffffffffffffffffffffffffffffffffff1681526020016060815260200160006002811115610bf557610bf4610ee3565b5b81525090565b6000604051905090565b600080fd5b600080fd5b6000819050919050565b610c2281610c0f565b8114610c2d57600080fd5b50565b600081359050610c3f81610c19565b92915050565b600080fd5b600080fd5b6000601f19601f8301169050919050565b7f4e487b7100000000000000000000000000000000000000000000000000000000600052604160045260246000fd5b610c9882610c4f565b810181811067ffffffffffffffff82111715610cb757610cb6610c60565b5b80604052505050565b6000610cca610bfb565b9050610cd68282610c8f565b919050565b600067ffffffffffffffff821115610cf657610cf5610c60565b5b610cff82610c4f565b9050602081019050919050565b82818337600083830152505050565b6000610d2e610d2984610cdb565b610cc0565b905082815260208101848484011115610d4a57610d49610c4a565b5b610d55848285610d0c565b509392505050565b600082601f830112610d7257610d71610c45565b5b8135610d82848260208601610d1b565b91505092915050565b60008060408385031215610da257610da1610c05565b5b6000610db085828601610c30565b925050602083013567ffffffffffffffff811115610dd157610dd0610c0a565b5b610ddd85828601610d5d565b9150509250929050565b600060208284031215610dfd57610dfc610c05565b5b6000610e0b84828501610c30565b91505092915050565b610e1d81610c0f565b82525050565b600073ffffffffffffffffffffffffffffffffffffffff82169050919050565b6000610e4e82610e23565b9050919050565b610e5e81610e43565b82525050565b600081519050919050565b600082825260208201905092915050565b60005b83811015610e9e578082015181840152602081019050610e83565b60008484015250505050565b6000610eb582610e64565b610ebf8185610e6f565b9350610ecf818560208601610e80565b610ed881610c4f565b840191505092915050565b7f4e487b7100000000000000000000000000000000000000000000000000000000600052602160045260246000fd5b60038110610f2357610f22610ee3565b5b50565b6000819050610f3482610f12565b919050565b6000610f4482610f26565b9050919050565b610f5481610f39565b82525050565b6000608082019050610f6f6000830187610e14565b610f7c6020830186610e55565b8181036040830152610f8e8185610eaa565b9050610f9d6060830184610f4b565b95945050505050565b6000602082019050610fbb6000830184610e55565b92915050565b60038110610fce57600080fd5b50565b600081359050610fe081610fc1565b92915050565b60008060408385031215610ffd57610ffc610c05565b5b600061100b85828601610c30565b925050602061101c85828601610fd1565b9150509250929050565b600081519050919050565b600082825260208201905092915050565b6000819050602082019050919050565b61105b81610c0f565b82525050565b61106a81610e43565b82525050565b600082825260208201905092915050565b600061108c82610e64565b6110968185611070565b93506110a6818560208601610e80565b6110af81610c4f565b840191505092915050565b6110c381610f39565b82525050565b600060a0830160008301516110e16000860182611052565b5060208301516110f46020860182611052565b5060408301516111076040860182611061565b506060830151848203606086015261111f8282611081565b915050608083015161113460808601826110ba565b508091505092915050565b600061114b83836110c9565b905092915050565b6000602082019050919050565b600061116b82611026565b6111758185611031565b93508360208202850161118785611042565b8060005b858110156111c357848403895281516111a4858261113f565b94506111af83611153565b925060208a0199505060018101905061118b565b50829750879550505050505092915050565b600060208201905081810360008301526111ef8184611160565b905092915050565b61120081610e43565b811461120b57600080fd5b50565b60008135905061121d816111f7565b92915050565b60006020828403121561123957611238610c05565b5b60006112478482850161120e565b91505092915050565b7f496e76616c696420706f6c696379204944000000000000000000000000000000600082015250565b6000611286601183610e6f565b915061129182611250565b602082019050919050565b600060208201905081810360008301526112b581611279565b9050919050565b7f4465736372697074696f6e2063616e6e6f7420626520656d7074790000000000600082015250565b60006112f2601b83610e6f565b91506112fd826112bc565b602082019050919050565b60006020820190508181036000830152611321816112e5565b9050919050565b600060208201905061133d6000830184610e14565b92915050565b60008151905061135281610c19565b92915050565b600081519050611367816111f7565b92915050565b6002811061137a57600080fd5b50565b60008151905061138c8161136d565b92915050565b600067ffffffffffffffff8211156113ad576113ac610c60565b5b602082029050602081019050919050565b600080fd5b60006113d66113d184611392565b610cc0565b905080838252602082019050602084028301858111156113f9576113f86113be565b5b835b81811015611422578061140e8882611343565b8452602084019350506020810190506113fb565b5050509392505050565b600082601f83011261144157611440610c45565b5b81516114518482602086016113c3565b91505092915050565b600080600080600060a0868803121561147657611475610c05565b5b600061148488828901611343565b955050602061149588828901611358565b94505060406114a688828901611343565b93505060606114b78882890161137d565b925050608086015167ffffffffffffffff8111156114d8576114d7610c0a565b5b6114e48882890161142c565b9150509295509295909350565b7f4f6e6c7920636f6e7472616374206f776e65722063616e207375626d6974206360008201527f6c61696d73000000000000000000000000000000000000000000000000000000602082015250565b600061154d602583610e6f565b9150611558826114f1565b604082019050919050565b6000602082019050818103600083015261157c81611540565b9050919050565b7f4e487b7100000000000000000000000000000000000000000000000000000000600052602260045260246000fd5b600060028204905060018216806115ca57607f821691505b6020821081036115dd576115dc611583565b5b50919050565b60008190508160005260206000209050919050565b60006020601f8301049050919050565b600082821b905092915050565b6000600883026116457fffffffffffffffffffffffffffffffffffffffffffffffffffffffffffffffff82611608565b61164f8683611608565b95508019841693508086168417925050509392505050565b6000819050919050565b600061168c61168761168284610c0f565b611667565b610c0f565b9050919050565b6000819050919050565b6116a683611671565b6116ba6116b282611693565b848454611615565b825550505050565b600090565b6116cf6116c2565b6116da81848461169d565b505050565b5b818110156116fe576116f36000826116c7565b6001810190506116e0565b5050565b601f82111561174357611714816115e3565b61171d846115f8565b8101602085101561172c578190505b611740611738856115f8565b8301826116df565b50505b505050565b600082821c905092915050565b600061176660001984600802611748565b1980831691505092915050565b600061177f8383611755565b9150826002028217905092915050565b61179882610e64565b67ffffffffffffffff8111156117b1576117b0610c60565b5b6117bb82546115b2565b6117c6828285611702565b600060209050601f8311600181146117f957600084156117e7578287015190505b6117f18582611773565b865550611859565b601f198416611807866115e3565b60005b8281101561182f5784890151825560018201915060208501945060208101905061180a565b8683101561184c5784890151611848601f891682611755565b8355505b6001600288020188555050505b505050505050565b6000602082019050818103600083015261187b8184610eaa565b905092915050565b60006040820190506118986000830185610e14565b6118a56020830184610e14565b9392505050565b7f4e487b7100000000000000000000000000000000000000000000000000000000600052601160045260246000fd5b60006118e682610c0f565b91507fffffffffffffffffffffffffffffffffffffffffffffffffffffffffffffffff8203611918576119176118ac565b5b600182019050919050565b7f436c61696d20646f6573206e6f74206578697374000000000000000000000000600082015250565b6000611959601483610e6f565b915061196482611923565b602082019050919050565b600060208201905081810360008301526119888161194c565b9050919050565b60006020820190506119a46000830184610f4b565b92915050565b7f4e487b7100000000000000000000000000000000000000000000000000000000600052603260045260246000fd5b7f4f776e61626c653a206e6577206f776e657220697320746865207a65726f206160008201527f6464726573730000000000000000000000000000000000000000000000000000602082015250565b6000611a35602683610e6f565b9150611a40826119d9565b604082019050919050565b60006020820190508181036000830152611a6481611a28565b9050919050565b7f4f776e61626c653a2063616c6c6572206973206e6f7420746865206f776e6572600082015250565b6000611aa1602083610e6f565b9150611aac82611a6b565b602082019050919050565b60006020820190508181036000830152611ad081611a94565b905091905056fea2646970667358221220b48bc79b2cd6a6122881b0df9bffd05aa974d6868d02aed7fad92b633a0b38a464736f6c63430008120033",
  "linkReferences": {},
  "deployedLinkReferences": {}
}