{
  "_format": "hh-sol-artifact-1",
  "contractName": "InsurancePolicyContract",
  "sourceName": "contracts/InsurancePolicyContract.sol",
  "abi": [
    {
      "inputs": [],
      "stateMutability": "nonpayable",
      "type": "constructor"
    },
    {
      "anonymous": false,
      "inputs": [
        {
          "indexed": true,
          "internalType": "uint256",
          "name": "policyId",
          "type": "uint256"
        },
        {
          "indexed": true,
          "internalType": "uint256",
          "name": "claimId",
          "type": "uint256"
        }
      ],
      "name": "ClaimAssociated",
      "type": "event"
    },
    {
      "anonymous": false,
      "inputs": [
        {
          "indexed": true,
          "internalType": "address",
          "name": "previousOwner",
          "type": "address"
        },
        {
          "indexed": true,
          "internalType": "address",
          "name": "newOwner",
          "type": "address"
        }
      ],
      "name": "OwnershipTransferred",
      "type": "event"
    },
    {
      "anonymous": false,
      "inputs": [
        {
          "indexed": true,
          "internalType": "uint256",
          "name": "policyId",
          "type": "uint256"
        },
        {
          "indexed": true,
          "internalType": "address",
          "name": "owner",
          "type": "address"
        },
        {
          "indexed": false,
          "internalType": "uint256",
          "name": "premiumAmount",
          "type": "uint256"
        }
      ],
      "name": "PolicyCreated",
      "type": "event"
    },
    {
      "anonymous": false,
      "inputs": [
        {
          "indexed": true,
          "internalType": "uint256",
          "name": "policyId",
          "type": "uint256"
        },
        {
          "indexed": false,
          "internalType": "enum InsurancePolicyContract.PolicyStatus",
          "name": "status",
          "type": "uint8"
        }
      ],
      "name": "PolicyStatusUpdated",
      "type": "event"
    },
    {
      "inputs": [
        {
          "internalType": "uint256",
          "name": "_policyId",
          "type": "uint256"
        },
        {
          "internalType": "uint256",
          "name": "_claimId",
          "type": "uint256"
        }
      ],
      "name": "associateClaim",
      "outputs": [],
      "stateMutability": "nonpayable",
      "type": "function"
    },
    {
      "inputs": [
        {
          "internalType": "uint256",
          "name": "_premiumAmount",
          "type": "uint256"
        }
      ],
      "name": "createPolicy",
      "outputs": [],
      "stateMutability": "nonpayable",
      "type": "function"
    },
    {
      "inputs": [
        {
          "internalType": "address",
          "name": "_owner",
          "type": "address"
        }
      ],
      "name": "getInsurancePoliciesByOwner",
      "outputs": [
        {
          "internalType": "uint256[]",
          "name": "",
          "type": "uint256[]"
        }
      ],
      "stateMutability": "view",
      "type": "function"
    },
    {
      "inputs": [
        {
          "internalType": "uint256",
          "name": "_policyId",
          "type": "uint256"
        }
      ],
      "name": "getPolicy",
      "outputs": [
        {
          "internalType": "uint256",
          "name": "policyId",
          "type": "uint256"
        },
        {
          "internalType": "address",
          "name": "owner",
          "type": "address"
        },
        {
          "internalType": "uint256",
          "name": "premiumAmount",
          "type": "uint256"
        },
        {
          "internalType": "enum InsurancePolicyContract.PolicyStatus",
          "name": "status",
          "type": "uint8"
        },
        {
          "internalType": "uint256[]",
          "name": "claimIds",
          "type": "uint256[]"
        }
      ],
      "stateMutability": "view",
      "type": "function"
    },
    {
      "inputs": [],
      "name": "listInsurancePolicies",
      "outputs": [
        {
          "components": [
            {
              "internalType": "uint256",
              "name": "policyId",
              "type": "uint256"
            },
            {
              "internalType": "address",
              "name": "owner",
              "type": "address"
            }
          ],
          "internalType": "struct InsurancePolicyContract.PolicyInfo[]",
          "name": "",
          "type": "tuple[]"
        }
      ],
      "stateMutability": "view",
      "type": "function"
    },
    {
      "inputs": [],
      "name": "owner",
      "outputs": [
        {
          "internalType": "address",
          "name": "",
          "type": "address"
        }
      ],
      "stateMutability": "view",
      "type": "function"
    },
    {
      "inputs": [],
      "name": "renounceOwnership",
      "outputs": [],
      "stateMutability": "nonpayable",
      "type": "function"
    },
    {
      "inputs": [
        {
          "internalType": "address",
          "name": "newOwner",
          "type": "address"
        }
      ],
      "name": "transferOwnership",
      "outputs": [],
      "stateMutability": "nonpayable",
      "type": "function"
    },
    {
      "inputs": [
        {
          "internalType": "uint256",
          "name": "_policyId",
          "type": "uint256"
        },
        {
          "internalType": "enum InsurancePolicyContract.PolicyStatus",
          "name": "_status",
          "type": "uint8"
        }
      ],
      "name": "updatePolicyStatus",
      "outputs": [],
      "stateMutability": "nonpayable",
      "type": "function"
    }
  ],
  "bytecode": "0x60806040523480156200001157600080fd5b5062000032620000266200004960201b60201c565b6200005160201b60201c565b62000043336200011560201b60201c565b62000380565b600033905090565b60008060009054906101000a900473ffffffffffffffffffffffffffffffffffffffff169050816000806101000a81548173ffffffffffffffffffffffffffffffffffffffff021916908373ffffffffffffffffffffffffffffffffffffffff1602179055508173ffffffffffffffffffffffffffffffffffffffff168173ffffffffffffffffffffffffffffffffffffffff167f8be0079c531659141344cd1fd0a4f28419497f9722a3daafe3b4186f6b6457e060405160405180910390a35050565b62000125620001ab60201b60201c565b600073ffffffffffffffffffffffffffffffffffffffff168173ffffffffffffffffffffffffffffffffffffffff160362000197576040517f08c379a00000000000000000000000000000000000000000000000000000000081526004016200018e90620002ec565b60405180910390fd5b620001a8816200005160201b60201c565b50565b620001bb6200004960201b60201c565b73ffffffffffffffffffffffffffffffffffffffff16620001e16200023c60201b60201c565b73ffffffffffffffffffffffffffffffffffffffff16146200023a576040517f08c379a000000000000000000000000000000000000000000000000000000000815260040162000231906200035e565b60405180910390fd5b565b60008060009054906101000a900473ffffffffffffffffffffffffffffffffffffffff16905090565b600082825260208201905092915050565b7f4f776e61626c653a206e6577206f776e657220697320746865207a65726f206160008201527f6464726573730000000000000000000000000000000000000000000000000000602082015250565b6000620002d460268362000265565b9150620002e18262000276565b604082019050919050565b600060208201905081810360008301526200030781620002c5565b9050919050565b7f4f776e61626c653a2063616c6c6572206973206e6f7420746865206f776e6572600082015250565b60006200034660208362000265565b915062000353826200030e565b602082019050919050565b60006020820190508181036000830152620003798162000337565b9050919050565b61136780620003906000396000f3fe608060405234801561001057600080fd5b50600436106100935760003560e01c8063837f574611610066578063837f5746146101225780638da5cb5b1461013e578063b963a5d11461015c578063e005cb3a14610178578063f2fde38b1461019657610093565b806304bd12bb146100985780632b07fce3146100b45780636956e642146100e8578063715018a614610118575b600080fd5b6100b260048036038101906100ad9190610bc3565b6101b2565b005b6100ce60048036038101906100c99190610bc3565b6103bc565b6040516100df959493929190610d75565b60405180910390f35b61010260048036038101906100fd9190610dfb565b610486565b60405161010f9190610e28565b60405180910390f35b6101206105b4565b005b61013c60048036038101906101379190610e4a565b6105c8565b005b6101466106d0565b6040516101539190610e8a565b60405180910390f35b61017660048036038101906101719190610eca565b6106f9565b005b610180610814565b60405161018d9190610ff7565b60405180910390f35b6101b060048036038101906101ab9190610dfb565b610921565b005b600081116101f5576040517f08c379a00000000000000000000000000000000000000000000000000000000081526004016101ec9061109c565b60405180910390fd5b6040518060a0016040528060025481526020013373ffffffffffffffffffffffffffffffffffffffff1681526020018281526020016000600181111561023e5761023d610c40565b5b8152602001600067ffffffffffffffff81111561025e5761025d6110bc565b5b60405190808252806020026020018201604052801561028c5781602001602082028036833780820191505090505b508152506001600060025481526020019081526020016000206000820151816000015560208201518160010160006101000a81548173ffffffffffffffffffffffffffffffffffffffff021916908373ffffffffffffffffffffffffffffffffffffffff1602179055506040820151816002015560608201518160030160006101000a81548160ff0219169083600181111561032b5761032a610c40565b5b0217905550608082015181600401908051906020019061034c929190610aee565b509050503373ffffffffffffffffffffffffffffffffffffffff166002547f601882301d3e3fce7fe3a99d4bb17ef5b6699b417bdd29f2bfb82e19fcbcb6608360405161039991906110eb565b60405180910390a3600260008154809291906103b490611135565b919050555050565b6000806000806060600060016000888152602001908152602001600020905080600001548160010160009054906101000a900473ffffffffffffffffffffffffffffffffffffffff1682600201548360030160009054906101000a900460ff16846004018080548060200260200160405190810160405280929190818152602001828054801561046b57602002820191906000526020600020905b815481526020019060010190808311610457575b50505050509050955095509550955095505091939590929450565b6060600060025467ffffffffffffffff8111156104a6576104a56110bc565b5b6040519080825280602002602001820160405280156104d45781602001602082028036833780820191505090505b5090506000805b6002548110156105a6578473ffffffffffffffffffffffffffffffffffffffff166001600083815260200190815260200160002060010160009054906101000a900473ffffffffffffffffffffffffffffffffffffffff1673ffffffffffffffffffffffffffffffffffffffff16036105935760016000828152602001908152602001600020600001548383815181106105785761057761117d565b5b602002602001018181525050818061058f90611135565b9250505b808061059e90611135565b9150506104db565b508082528192505050919050565b6105bc6109a4565b6105c66000610a22565b565b6000600160008481526020019081526020016000209050600073ffffffffffffffffffffffffffffffffffffffff168160010160009054906101000a900473ffffffffffffffffffffffffffffffffffffffff1673ffffffffffffffffffffffffffffffffffffffff1603610672576040517f08c379a0000000000000000000000000000000000000000000000000000000008152600401610669906111f8565b60405180910390fd5b8060040182908060018154018082558091505060019003906000526020600020016000909190919091505581837f6209d5e57427b535a493ae090f045c5a41900a11fa9105e1a4753629e410d33260405160405180910390a3505050565b60008060009054906101000a900473ffffffffffffffffffffffffffffffffffffffff16905090565b6107016109a4565b6000600160008481526020019081526020016000209050600073ffffffffffffffffffffffffffffffffffffffff168160010160009054906101000a900473ffffffffffffffffffffffffffffffffffffffff1673ffffffffffffffffffffffffffffffffffffffff16036107ab576040517f08c379a00000000000000000000000000000000000000000000000000000000081526004016107a2906111f8565b60405180910390fd5b818160030160006101000a81548160ff021916908360018111156107d2576107d1610c40565b5b0217905550827fddba6ca814ce3f0cb8c9b4b44e5e1891ef8c2857746e6b7453464abc1539209b836040516108079190611218565b60405180910390a2505050565b6060600060025467ffffffffffffffff811115610834576108336110bc565b5b60405190808252806020026020018201604052801561086d57816020015b61085a610b3b565b8152602001906001900390816108525790505b50905060005b6002548110156109195760006001600083815260200190815260200160002090506040518060400160405280826000015481526020018260010160009054906101000a900473ffffffffffffffffffffffffffffffffffffffff1673ffffffffffffffffffffffffffffffffffffffff168152508383815181106108fa576108f961117d565b5b602002602001018190525050808061091190611135565b915050610873565b508091505090565b6109296109a4565b600073ffffffffffffffffffffffffffffffffffffffff168173ffffffffffffffffffffffffffffffffffffffff1603610998576040517f08c379a000000000000000000000000000000000000000000000000000000000815260040161098f906112a5565b60405180910390fd5b6109a181610a22565b50565b6109ac610ae6565b73ffffffffffffffffffffffffffffffffffffffff166109ca6106d0565b73ffffffffffffffffffffffffffffffffffffffff1614610a20576040517f08c379a0000000000000000000000000000000000000000000000000000000008152600401610a1790611311565b60405180910390fd5b565b60008060009054906101000a900473ffffffffffffffffffffffffffffffffffffffff169050816000806101000a81548173ffffffffffffffffffffffffffffffffffffffff021916908373ffffffffffffffffffffffffffffffffffffffff1602179055508173ffffffffffffffffffffffffffffffffffffffff168173ffffffffffffffffffffffffffffffffffffffff167f8be0079c531659141344cd1fd0a4f28419497f9722a3daafe3b4186f6b6457e060405160405180910390a35050565b600033905090565b828054828255906000526020600020908101928215610b2a579160200282015b82811115610b29578251825591602001919060010190610b0e565b5b509050610b379190610b6b565b5090565b604051806040016040528060008152602001600073ffffffffffffffffffffffffffffffffffffffff1681525090565b5b80821115610b84576000816000905550600101610b6c565b5090565b600080fd5b6000819050919050565b610ba081610b8d565b8114610bab57600080fd5b50565b600081359050610bbd81610b97565b92915050565b600060208284031215610bd957610bd8610b88565b5b6000610be784828501610bae565b91505092915050565b610bf981610b8d565b82525050565b600073ffffffffffffffffffffffffffffffffffffffff82169050919050565b6000610c2a82610bff565b9050919050565b610c3a81610c1f565b82525050565b7f4e487b7100000000000000000000000000000000000000000000000000000000600052602160045260246000fd5b60028110610c8057610c7f610c40565b5b50565b6000819050610c9182610c6f565b919050565b6000610ca182610c83565b9050919050565b610cb181610c96565b82525050565b600081519050919050565b600082825260208201905092915050565b6000819050602082019050919050565b610cec81610b8d565b82525050565b6000610cfe8383610ce3565b60208301905092915050565b6000602082019050919050565b6000610d2282610cb7565b610d2c8185610cc2565b9350610d3783610cd3565b8060005b83811015610d68578151610d4f8882610cf2565b9750610d5a83610d0a565b925050600181019050610d3b565b5085935050505092915050565b600060a082019050610d8a6000830188610bf0565b610d976020830187610c31565b610da46040830186610bf0565b610db16060830185610ca8565b8181036080830152610dc38184610d17565b90509695505050505050565b610dd881610c1f565b8114610de357600080fd5b50565b600081359050610df581610dcf565b92915050565b600060208284031215610e1157610e10610b88565b5b6000610e1f84828501610de6565b91505092915050565b60006020820190508181036000830152610e428184610d17565b905092915050565b60008060408385031215610e6157610e60610b88565b5b6000610e6f85828601610bae565b9250506020610e8085828601610bae565b9150509250929050565b6000602082019050610e9f6000830184610c31565b92915050565b60028110610eb257600080fd5b50565b600081359050610ec481610ea5565b92915050565b60008060408385031215610ee157610ee0610b88565b5b6000610eef85828601610bae565b9250506020610f0085828601610eb5565b9150509250929050565b600081519050919050565b600082825260208201905092915050565b6000819050602082019050919050565b610f3f81610c1f565b82525050565b604082016000820151610f5b6000850182610ce3565b506020820151610f6e6020850182610f36565b50505050565b6000610f808383610f45565b60408301905092915050565b6000602082019050919050565b6000610fa482610f0a565b610fae8185610f15565b9350610fb983610f26565b8060005b83811015610fea578151610fd18882610f74565b9750610fdc83610f8c565b925050600181019050610fbd565b5085935050505092915050565b600060208201905081810360008301526110118184610f99565b905092915050565b600082825260208201905092915050565b7f5072656d69756d20616d6f756e74206d7573742062652067726561746572207460008201527f68616e207a65726f000000000000000000000000000000000000000000000000602082015250565b6000611086602883611019565b91506110918261102a565b604082019050919050565b600060208201905081810360008301526110b581611079565b9050919050565b7f4e487b7100000000000000000000000000000000000000000000000000000000600052604160045260246000fd5b60006020820190506111006000830184610bf0565b92915050565b7f4e487b7100000000000000000000000000000000000000000000000000000000600052601160045260246000fd5b600061114082610b8d565b91507fffffffffffffffffffffffffffffffffffffffffffffffffffffffffffffffff820361117257611171611106565b5b600182019050919050565b7f4e487b7100000000000000000000000000000000000000000000000000000000600052603260045260246000fd5b7f506f6c69637920646f6573206e6f742065786973740000000000000000000000600082015250565b60006111e2601583611019565b91506111ed826111ac565b602082019050919050565b60006020820190508181036000830152611211816111d5565b9050919050565b600060208201905061122d6000830184610ca8565b92915050565b7f4f776e61626c653a206e6577206f776e657220697320746865207a65726f206160008201527f6464726573730000000000000000000000000000000000000000000000000000602082015250565b600061128f602683611019565b915061129a82611233565b604082019050919050565b600060208201905081810360008301526112be81611282565b9050919050565b7f4f776e61626c653a2063616c6c6572206973206e6f7420746865206f776e6572600082015250565b60006112fb602083611019565b9150611306826112c5565b602082019050919050565b6000602082019050818103600083015261132a816112ee565b905091905056fea26469706673582212204c88de87a54883e606b54f6231aecaf2379a648e60c289b4532d1e6771a4eddd64736f6c63430008120033",
  "linkReferences": {},
  "deployedLinkReferences": {}
}