{
  "_format": "hh-sol-artifact-1",
  "contractName": "VehicleContract",
  "sourceName": "contracts/VehicleContract.sol",
  "abi": [
    {
      "anonymous": false,
      "inputs": [
        {
          "indexed": true,
          "internalType": "address",
          "name": "previousOwner",
          "type": "address"
        },
        {
          "indexed": true,
          "internalType": "address",
          "name": "newOwner",
          "type": "address"
        }
      ],
      "name": "OwnershipTransferred",
      "type": "event"
    },
    {
      "anonymous": false,
      "inputs": [
        {
          "indexed": true,
          "internalType": "address",
          "name": "owner",
          "type": "address"
        },
        {
          "indexed": false,
          "internalType": "string",
          "name": "licensePlate",
          "type": "string"
        }
      ],
      "name": "VehicleCreated",
      "type": "event"
    },
    {
      "inputs": [
        {
          "internalType": "string",
          "name": "_licensePlate",
          "type": "string"
        }
      ],
      "name": "createVehicle",
      "outputs": [],
      "stateMutability": "nonpayable",
      "type": "function"
    },
    {
      "inputs": [
        {
          "internalType": "address",
          "name": "_owner",
          "type": "address"
        }
      ],
      "name": "getVehicle",
      "outputs": [
        {
          "internalType": "string",
          "name": "",
          "type": "string"
        }
      ],
      "stateMutability": "view",
      "type": "function"
    },
    {
      "inputs": [],
      "name": "listVehicles",
      "outputs": [
        {
          "components": [
            {
              "internalType": "address",
              "name": "vehicleAddress",
              "type": "address"
            },
            {
              "internalType": "string",
              "name": "licensePlate",
              "type": "string"
            }
          ],
          "internalType": "struct VehicleContract.VehicleInfo[]",
          "name": "",
          "type": "tuple[]"
        }
      ],
      "stateMutability": "view",
      "type": "function"
    },
    {
      "inputs": [],
      "name": "owner",
      "outputs": [
        {
          "internalType": "address",
          "name": "",
          "type": "address"
        }
      ],
      "stateMutability": "view",
      "type": "function"
    },
    {
      "inputs": [],
      "name": "renounceOwnership",
      "outputs": [],
      "stateMutability": "nonpayable",
      "type": "function"
    },
    {
      "inputs": [
        {
          "internalType": "address",
          "name": "newOwner",
          "type": "address"
        }
      ],
      "name": "transferOwnership",
      "outputs": [],
      "stateMutability": "nonpayable",
      "type": "function"
    },
    {
      "inputs": [
        {
          "internalType": "string",
          "name": "_licensePlate",
          "type": "string"
        }
      ],
      "name": "updateLicensePlate",
      "outputs": [],
      "stateMutability": "nonpayable",
      "type": "function"
    },
    {
      "inputs": [
        {
          "internalType": "address",
          "name": "_owner",
          "type": "address"
        }
      ],
      "name": "vehicleExists",
      "outputs": [
        {
          "internalType": "bool",
          "name": "",
          "type": "bool"
        }
      ],
      "stateMutability": "view",
      "type": "function"
    }
  ],
  "bytecode": "0x608060405234801561001057600080fd5b5061002d61002261003260201b60201c565b61003a60201b60201c565b6100fe565b600033905090565b60008060009054906101000a900473ffffffffffffffffffffffffffffffffffffffff169050816000806101000a81548173ffffffffffffffffffffffffffffffffffffffff021916908373ffffffffffffffffffffffffffffffffffffffff1602179055508173ffffffffffffffffffffffffffffffffffffffff168173ffffffffffffffffffffffffffffffffffffffff167f8be0079c531659141344cd1fd0a4f28419497f9722a3daafe3b4186f6b6457e060405160405180910390a35050565b61140c8061010d6000396000f3fe608060405234801561001057600080fd5b50600436106100885760003560e01c80638da5cb5b1161005b5780638da5cb5b14610101578063a93ab1011461011f578063cb99ce7f1461014f578063f2fde38b1461016b57610088565b80632132730e1461008d578063471f38fb146100a9578063481a1cbf146100c7578063715018a6146100f7575b600080fd5b6100a760048036038101906100a29190610ab7565b610187565b005b6100b161032f565b6040516100be9190610cbf565b60405180910390f35b6100e160048036038101906100dc9190610d0d565b610516565b6040516100ee9190610d55565b60405180910390f35b6100ff610570565b005b610109610584565b6040516101169190610d7f565b60405180910390f35b61013960048036038101906101349190610d0d565b6105ad565b6040516101469190610de4565b60405180910390f35b61016960048036038101906101649190610ab7565b610681565b005b61018560048036038101906101809190610d0d565b610760565b005b60008151116101cb576040517f08c379a00000000000000000000000000000000000000000000000000000000081526004016101c290610e52565b60405180910390fd5b6101d433610516565b15610214576040517f08c379a000000000000000000000000000000000000000000000000000000000815260040161020b90610ebe565b60405180910390fd5b604051806020016040528082815250600160003373ffffffffffffffffffffffffffffffffffffffff1673ffffffffffffffffffffffffffffffffffffffff168152602001908152602001600020600082015181600001908161027791906110f4565b509050506002339080600181540180825580915050600190039060005260206000200160009091909190916101000a81548173ffffffffffffffffffffffffffffffffffffffff021916908373ffffffffffffffffffffffffffffffffffffffff1602179055503373ffffffffffffffffffffffffffffffffffffffff167f88f60b883841588cd8e3c5c48abe8237e5b557bb0cfab48c8bcde62fcf97966a826040516103249190610de4565b60405180910390a250565b6060600060028054905067ffffffffffffffff8111156103525761035161098c565b5b60405190808252806020026020018201604052801561038b57816020015b61037861092d565b8152602001906001900390816103705790505b50905060005b60028054905081101561050e576000600282815481106103b4576103b36111c6565b5b9060005260206000200160009054906101000a900473ffffffffffffffffffffffffffffffffffffffff1690506000600160008373ffffffffffffffffffffffffffffffffffffffff1673ffffffffffffffffffffffffffffffffffffffff168152602001908152602001600020600001805461043090610f0d565b80601f016020809104026020016040519081016040528092919081815260200182805461045c90610f0d565b80156104a95780601f1061047e576101008083540402835291602001916104a9565b820191906000526020600020905b81548152906001019060200180831161048c57829003601f168201915b5050505050905060405180604001604052808373ffffffffffffffffffffffffffffffffffffffff168152602001828152508484815181106104ee576104ed6111c6565b5b60200260200101819052505050808061050690611224565b915050610391565b508091505090565b600080600160008473ffffffffffffffffffffffffffffffffffffffff1673ffffffffffffffffffffffffffffffffffffffff168152602001908152602001600020600001805461056690610f0d565b9050119050919050565b6105786107e3565b6105826000610861565b565b60008060009054906101000a900473ffffffffffffffffffffffffffffffffffffffff16905090565b6060600160008373ffffffffffffffffffffffffffffffffffffffff1673ffffffffffffffffffffffffffffffffffffffff16815260200190815260200160002060000180546105fc90610f0d565b80601f016020809104026020016040519081016040528092919081815260200182805461062890610f0d565b80156106755780601f1061064a57610100808354040283529160200191610675565b820191906000526020600020905b81548152906001019060200180831161065857829003601f168201915b50505050509050919050565b60008151116106c5576040517f08c379a00000000000000000000000000000000000000000000000000000000081526004016106bc90610e52565b60405180910390fd5b6106ce33610516565b61070d576040517f08c379a0000000000000000000000000000000000000000000000000000000008152600401610704906112b8565b60405180910390fd5b80600160003373ffffffffffffffffffffffffffffffffffffffff1673ffffffffffffffffffffffffffffffffffffffff168152602001908152602001600020600001908161075c91906110f4565b5050565b6107686107e3565b600073ffffffffffffffffffffffffffffffffffffffff168173ffffffffffffffffffffffffffffffffffffffff16036107d7576040517f08c379a00000000000000000000000000000000000000000000000000000000081526004016107ce9061134a565b60405180910390fd5b6107e081610861565b50565b6107eb610925565b73ffffffffffffffffffffffffffffffffffffffff16610809610584565b73ffffffffffffffffffffffffffffffffffffffff161461085f576040517f08c379a0000000000000000000000000000000000000000000000000000000008152600401610856906113b6565b60405180910390fd5b565b60008060009054906101000a900473ffffffffffffffffffffffffffffffffffffffff169050816000806101000a81548173ffffffffffffffffffffffffffffffffffffffff021916908373ffffffffffffffffffffffffffffffffffffffff1602179055508173ffffffffffffffffffffffffffffffffffffffff168173ffffffffffffffffffffffffffffffffffffffff167f8be0079c531659141344cd1fd0a4f28419497f9722a3daafe3b4186f6b6457e060405160405180910390a35050565b600033905090565b6040518060400160405280600073ffffffffffffffffffffffffffffffffffffffff168152602001606081525090565b6000604051905090565b600080fd5b600080fd5b600080fd5b600080fd5b6000601f19601f8301169050919050565b7f4e487b7100000000000000000000000000000000000000000000000000000000600052604160045260246000fd5b6109c48261097b565b810181811067ffffffffffffffff821117156109e3576109e261098c565b5b80604052505050565b60006109f661095d565b9050610a0282826109bb565b919050565b600067ffffffffffffffff821115610a2257610a2161098c565b5b610a2b8261097b565b9050602081019050919050565b82818337600083830152505050565b6000610a5a610a5584610a07565b6109ec565b905082815260208101848484011115610a7657610a75610976565b5b610a81848285610a38565b509392505050565b600082601f830112610a9e57610a9d610971565b5b8135610aae848260208601610a47565b91505092915050565b600060208284031215610acd57610acc610967565b5b600082013567ffffffffffffffff811115610aeb57610aea61096c565b5b610af784828501610a89565b91505092915050565b600081519050919050565b600082825260208201905092915050565b6000819050602082019050919050565b600073ffffffffffffffffffffffffffffffffffffffff82169050919050565b6000610b5782610b2c565b9050919050565b610b6781610b4c565b82525050565b600081519050919050565b600082825260208201905092915050565b60005b83811015610ba7578082015181840152602081019050610b8c565b60008484015250505050565b6000610bbe82610b6d565b610bc88185610b78565b9350610bd8818560208601610b89565b610be18161097b565b840191505092915050565b6000604083016000830151610c046000860182610b5e565b5060208301518482036020860152610c1c8282610bb3565b9150508091505092915050565b6000610c358383610bec565b905092915050565b6000602082019050919050565b6000610c5582610b00565b610c5f8185610b0b565b935083602082028501610c7185610b1c565b8060005b85811015610cad5784840389528151610c8e8582610c29565b9450610c9983610c3d565b925060208a01995050600181019050610c75565b50829750879550505050505092915050565b60006020820190508181036000830152610cd98184610c4a565b905092915050565b610cea81610b4c565b8114610cf557600080fd5b50565b600081359050610d0781610ce1565b92915050565b600060208284031215610d2357610d22610967565b5b6000610d3184828501610cf8565b91505092915050565b60008115159050919050565b610d4f81610d3a565b82525050565b6000602082019050610d6a6000830184610d46565b92915050565b610d7981610b4c565b82525050565b6000602082019050610d946000830184610d70565b92915050565b600082825260208201905092915050565b6000610db682610b6d565b610dc08185610d9a565b9350610dd0818560208601610b89565b610dd98161097b565b840191505092915050565b60006020820190508181036000830152610dfe8184610dab565b905092915050565b7f4c6963656e736520706c6174652063616e6e6f7420626520656d707479000000600082015250565b6000610e3c601d83610d9a565b9150610e4782610e06565b602082019050919050565b60006020820190508181036000830152610e6b81610e2f565b9050919050565b7f56656869636c6520616c72656164792065786973747300000000000000000000600082015250565b6000610ea8601683610d9a565b9150610eb382610e72565b602082019050919050565b60006020820190508181036000830152610ed781610e9b565b9050919050565b7f4e487b7100000000000000000000000000000000000000000000000000000000600052602260045260246000fd5b60006002820490506001821680610f2557607f821691505b602082108103610f3857610f37610ede565b5b50919050565b60008190508160005260206000209050919050565b60006020601f8301049050919050565b600082821b905092915050565b600060088302610fa07fffffffffffffffffffffffffffffffffffffffffffffffffffffffffffffffff82610f63565b610faa8683610f63565b95508019841693508086168417925050509392505050565b6000819050919050565b6000819050919050565b6000610ff1610fec610fe784610fc2565b610fcc565b610fc2565b9050919050565b6000819050919050565b61100b83610fd6565b61101f61101782610ff8565b848454610f70565b825550505050565b600090565b611034611027565b61103f818484611002565b505050565b5b818110156110635761105860008261102c565b600181019050611045565b5050565b601f8211156110a85761107981610f3e565b61108284610f53565b81016020851015611091578190505b6110a561109d85610f53565b830182611044565b50505b505050565b600082821c905092915050565b60006110cb600019846008026110ad565b1980831691505092915050565b60006110e483836110ba565b9150826002028217905092915050565b6110fd82610b6d565b67ffffffffffffffff8111156111165761111561098c565b5b6111208254610f0d565b61112b828285611067565b600060209050601f83116001811461115e576000841561114c578287015190505b61115685826110d8565b8655506111be565b601f19841661116c86610f3e565b60005b828110156111945784890151825560018201915060208501945060208101905061116f565b868310156111b157848901516111ad601f8916826110ba565b8355505b6001600288020188555050505b505050505050565b7f4e487b7100000000000000000000000000000000000000000000000000000000600052603260045260246000fd5b7f4e487b7100000000000000000000000000000000000000000000000000000000600052601160045260246000fd5b600061122f82610fc2565b91507fffffffffffffffffffffffffffffffffffffffffffffffffffffffffffffffff8203611261576112606111f5565b5b600182019050919050565b7f56656869636c6520646f6573206e6f7420657869737400000000000000000000600082015250565b60006112a2601683610d9a565b91506112ad8261126c565b602082019050919050565b600060208201905081810360008301526112d181611295565b9050919050565b7f4f776e61626c653a206e6577206f776e657220697320746865207a65726f206160008201527f6464726573730000000000000000000000000000000000000000000000000000602082015250565b6000611334602683610d9a565b915061133f826112d8565b604082019050919050565b6000602082019050818103600083015261136381611327565b9050919050565b7f4f776e61626c653a2063616c6c6572206973206e6f7420746865206f776e6572600082015250565b60006113a0602083610d9a565b91506113ab8261136a565b602082019050919050565b600060208201905081810360008301526113cf81611393565b905091905056fea2646970667358221220e48c676ba6bec1254687a45f1b639596ede00749b5cc3719a1e5884e9d9fbacf64736f6c63430008120033",
  "linkReferences": {},
  "deployedLinkReferences": {}
}