{
  "_format": "hh-sol-artifact-1",
  "contractName": "TokenizedBallot",
  "sourceName": "contracts/TokenizedBallot.sol",
  "abi": [
    {
      "inputs": [
        {
          "internalType": "bytes32[]",
          "name": "proposalNames",
          "type": "bytes32[]"
        },
        {
          "internalType": "address",
          "name": "_tokenContract",
          "type": "address"
        },
        {
          "internalType": "uint256",
          "name": "_targetBlockNumber",
          "type": "uint256"
        }
      ],
      "stateMutability": "nonpayable",
      "type": "constructor"
    },
    {
      "inputs": [
        {
          "internalType": "uint256",
          "name": "",
          "type": "uint256"
        }
      ],
      "name": "proposals",
      "outputs": [
        {
          "internalType": "bytes32",
          "name": "name",
          "type": "bytes32"
        },
        {
          "internalType": "uint256",
          "name": "voteCount",
          "type": "uint256"
        }
      ],
      "stateMutability": "view",
      "type": "function"
    },
    {
      "inputs": [],
      "name": "targetBlockNumber",
      "outputs": [
        {
          "internalType": "uint256",
          "name": "",
          "type": "uint256"
        }
      ],
      "stateMutability": "view",
      "type": "function"
    },
    {
      "inputs": [],
      "name": "tokenContract",
      "outputs": [
        {
          "internalType": "contract IIceCreamToken",
          "name": "",
          "type": "address"
        }
      ],
      "stateMutability": "view",
      "type": "function"
    },
    {
      "inputs": [
        {
          "internalType": "uint256",
          "name": "proposal",
          "type": "uint256"
        },
        {
          "internalType": "uint256",
          "name": "_amount",
          "type": "uint256"
        }
      ],
      "name": "vote",
      "outputs": [],
      "stateMutability": "nonpayable",
      "type": "function"
    },
    {
      "inputs": [
        {
          "internalType": "address",
          "name": "_account",
          "type": "address"
        }
      ],
      "name": "votingPower",
      "outputs": [
        {
          "internalType": "uint256",
          "name": "",
          "type": "uint256"
        }
      ],
      "stateMutability": "view",
      "type": "function"
    },
    {
      "inputs": [
        {
          "internalType": "address",
          "name": "",
          "type": "address"
        }
      ],
      "name": "votingPowerSpent",
      "outputs": [
        {
          "internalType": "uint256",
          "name": "",
          "type": "uint256"
        }
      ],
      "stateMutability": "view",
      "type": "function"
    },
    {
      "inputs": [],
      "name": "winnerName",
      "outputs": [
        {
          "internalType": "bytes32",
          "name": "winnerName_",
          "type": "bytes32"
        }
      ],
      "stateMutability": "view",
      "type": "function"
    },
    {
      "inputs": [],
      "name": "winningProposal",
      "outputs": [
        {
          "internalType": "uint256",
          "name": "winningProposal_",
          "type": "uint256"
        }
      ],
      "stateMutability": "view",
      "type": "function"
    }
  ],
  "bytecode": "0x60806040523480156200001157600080fd5b5060405162000e5e38038062000e5e833981810160405281019062000037919062000398565b816000806101000a81548173ffffffffffffffffffffffffffffffffffffffff021916908373ffffffffffffffffffffffffffffffffffffffff16021790555060018162000086919062000442565b6002819055504360028190555060005b83518110156200012a5760016040518060400160405280868481518110620000c357620000c26200047d565b5b60200260200101518152602001600081525090806001815401808255809150506001900390600052602060002090600202016000909190919091506000820151816000015560208201518160010155505080806200012190620004ac565b91505062000096565b50505050620004f9565b6000604051905090565b600080fd5b600080fd5b600080fd5b6000601f19601f8301169050919050565b7f4e487b7100000000000000000000000000000000000000000000000000000000600052604160045260246000fd5b62000198826200014d565b810181811067ffffffffffffffff82111715620001ba57620001b96200015e565b5b80604052505050565b6000620001cf62000134565b9050620001dd82826200018d565b919050565b600067ffffffffffffffff8211156200020057620001ff6200015e565b5b602082029050602081019050919050565b600080fd5b6000819050919050565b6200022b8162000216565b81146200023757600080fd5b50565b6000815190506200024b8162000220565b92915050565b6000620002686200026284620001e2565b620001c3565b905080838252602082019050602084028301858111156200028e576200028d62000211565b5b835b81811015620002bb5780620002a688826200023a565b84526020840193505060208101905062000290565b5050509392505050565b600082601f830112620002dd57620002dc62000148565b5b8151620002ef84826020860162000251565b91505092915050565b600073ffffffffffffffffffffffffffffffffffffffff82169050919050565b60006200032582620002f8565b9050919050565b620003378162000318565b81146200034357600080fd5b50565b60008151905062000357816200032c565b92915050565b6000819050919050565b62000372816200035d565b81146200037e57600080fd5b50565b600081519050620003928162000367565b92915050565b600080600060608486031215620003b457620003b36200013e565b5b600084015167ffffffffffffffff811115620003d557620003d462000143565b5b620003e386828701620002c5565b9350506020620003f68682870162000346565b9250506040620004098682870162000381565b9150509250925092565b7f4e487b7100000000000000000000000000000000000000000000000000000000600052601160045260246000fd5b60006200044f826200035d565b91506200045c836200035d565b925082820390508181111562000477576200047662000413565b5b92915050565b7f4e487b7100000000000000000000000000000000000000000000000000000000600052603260045260246000fd5b6000620004b9826200035d565b91507fffffffffffffffffffffffffffffffffffffffffffffffffffffffffffffffff8203620004ee57620004ed62000413565b5b600182019050919050565b61095580620005096000396000f3fe608060405234801561001057600080fd5b50600436106100885760003560e01c8063a72003511161005b578063a720035114610118578063b384abef14610148578063c07473f614610164578063e2ba53f01461019457610088565b8063013cf08b1461008d5780632a8cd29e146100be57806355a373d6146100dc578063609ff1bd146100fa575b600080fd5b6100a760048036038101906100a291906104fb565b6101b2565b6040516100b5929190610550565b60405180910390f35b6100c66101e6565b6040516100d39190610579565b60405180910390f35b6100e46101ec565b6040516100f19190610613565b60405180910390f35b610102610210565b60405161010f9190610579565b60405180910390f35b610132600480360381019061012d919061066c565b610298565b60405161013f9190610579565b60405180910390f35b610162600480360381019061015d9190610699565b6102b0565b005b61017e6004803603810190610179919061066c565b610391565b60405161018b9190610579565b60405180910390f35b61019c61048c565b6040516101a991906106d9565b60405180910390f35b600181815481106101c257600080fd5b90600052602060002090600202016000915090508060000154908060010154905082565b60025481565b60008054906101000a900473ffffffffffffffffffffffffffffffffffffffff1681565b6000806000905060005b60018054905081101561029357816001828154811061023c5761023b6106f4565b5b90600052602060002090600202016001015411156102805760018181548110610268576102676106f4565b5b90600052602060002090600202016001015491508092505b808061028b90610752565b91505061021a565b505090565b60036020528060005260406000206000915090505481565b806102ba33610391565b10156102fb576040517f08c379a00000000000000000000000000000000000000000000000000000000081526004016102f29061081d565b60405180910390fd5b80600360003373ffffffffffffffffffffffffffffffffffffffff1673ffffffffffffffffffffffffffffffffffffffff168152602001908152602001600020600082825461034a919061083d565b925050819055508060018381548110610366576103656106f4565b5b90600052602060002090600202016001016000828254610386919061083d565b925050819055505050565b6000600360008373ffffffffffffffffffffffffffffffffffffffff1673ffffffffffffffffffffffffffffffffffffffff1681526020019081526020016000205460008054906101000a900473ffffffffffffffffffffffffffffffffffffffff1673ffffffffffffffffffffffffffffffffffffffff16633a46b1a88460014361041d9190610871565b6040518363ffffffff1660e01b815260040161043a9291906108b4565b602060405180830381865afa158015610457573d6000803e3d6000fd5b505050506040513d601f19601f8201168201806040525081019061047b91906108f2565b6104859190610871565b9050919050565b60006001610498610210565b815481106104a9576104a86106f4565b5b906000526020600020906002020160000154905090565b600080fd5b6000819050919050565b6104d8816104c5565b81146104e357600080fd5b50565b6000813590506104f5816104cf565b92915050565b600060208284031215610511576105106104c0565b5b600061051f848285016104e6565b91505092915050565b6000819050919050565b61053b81610528565b82525050565b61054a816104c5565b82525050565b60006040820190506105656000830185610532565b6105726020830184610541565b9392505050565b600060208201905061058e6000830184610541565b92915050565b600073ffffffffffffffffffffffffffffffffffffffff82169050919050565b6000819050919050565b60006105d96105d46105cf84610594565b6105b4565b610594565b9050919050565b60006105eb826105be565b9050919050565b60006105fd826105e0565b9050919050565b61060d816105f2565b82525050565b60006020820190506106286000830184610604565b92915050565b600061063982610594565b9050919050565b6106498161062e565b811461065457600080fd5b50565b60008135905061066681610640565b92915050565b600060208284031215610682576106816104c0565b5b600061069084828501610657565b91505092915050565b600080604083850312156106b0576106af6104c0565b5b60006106be858286016104e6565b92505060206106cf858286016104e6565b9150509250929050565b60006020820190506106ee6000830184610532565b92915050565b7f4e487b7100000000000000000000000000000000000000000000000000000000600052603260045260246000fd5b7f4e487b7100000000000000000000000000000000000000000000000000000000600052601160045260246000fd5b600061075d826104c5565b91507fffffffffffffffffffffffffffffffffffffffffffffffffffffffffffffffff820361078f5761078e610723565b5b600182019050919050565b600082825260208201905092915050565b7f4572726f723a20747279696e6720746f20766f7465206d6f7265207468616e2060008201527f616c6c6f77656400000000000000000000000000000000000000000000000000602082015250565b600061080760278361079a565b9150610812826107ab565b604082019050919050565b60006020820190508181036000830152610836816107fa565b9050919050565b6000610848826104c5565b9150610853836104c5565b925082820190508082111561086b5761086a610723565b5b92915050565b600061087c826104c5565b9150610887836104c5565b925082820390508181111561089f5761089e610723565b5b92915050565b6108ae8161062e565b82525050565b60006040820190506108c960008301856108a5565b6108d66020830184610541565b9392505050565b6000815190506108ec816104cf565b92915050565b600060208284031215610908576109076104c0565b5b6000610916848285016108dd565b9150509291505056fea264697066735822122061d2c595f011ff88c92d79acb69ee69efd42818014151ff89f2efff09f49ad1564736f6c63430008120033",
  "linkReferences": {},
  "deployedLinkReferences": {}
}