{
  "_format": "hh-sol-artifact-1",
  "contractName": "ClaimContract",
  "sourceName": "contracts/ClaimContract.sol",
  "abi": [
    {
      "inputs": [
        {
          "internalType": "address",
          "name": "_insurancePolicyContractAddress",
          "type": "address"
        }
      ],
      "stateMutability": "nonpayable",
      "type": "constructor"
    },
    {
      "anonymous": false,
      "inputs": [
        {
          "indexed": true,
          "internalType": "uint256",
          "name": "claimId",
          "type": "uint256"
        },
        {
          "indexed": false,
          "internalType": "enum ClaimContract.ClaimStatus",
          "name": "status",
          "type": "uint8"
        }
      ],
      "name": "ClaimStatusUpdated",
      "type": "event"
    },
    {
      "anonymous": false,
      "inputs": [
        {
          "indexed": true,
          "internalType": "uint256",
          "name": "claimId",
          "type": "uint256"
        },
        {
          "indexed": true,
          "internalType": "uint256",
          "name": "policyId",
          "type": "uint256"
        },
        {
          "indexed": true,
          "internalType": "address",
          "name": "claimant",
          "type": "address"
        },
        {
          "indexed": false,
          "internalType": "string",
          "name": "description",
          "type": "string"
        }
      ],
      "name": "ClaimSubmitted",
      "type": "event"
    },
    {
      "anonymous": false,
      "inputs": [
        {
          "indexed": true,
          "internalType": "address",
          "name": "previousOwner",
          "type": "address"
        },
        {
          "indexed": true,
          "internalType": "address",
          "name": "newOwner",
          "type": "address"
        }
      ],
      "name": "OwnershipTransferred",
      "type": "event"
    },
    {
      "inputs": [
        {
          "internalType": "uint256",
          "name": "_claimId",
          "type": "uint256"
        }
      ],
      "name": "getClaim",
      "outputs": [
        {
          "internalType": "uint256",
          "name": "policyId",
          "type": "uint256"
        },
        {
          "internalType": "address",
          "name": "claimant",
          "type": "address"
        },
        {
          "internalType": "string",
          "name": "description",
          "type": "string"
        },
        {
          "internalType": "enum ClaimContract.ClaimStatus",
          "name": "status",
          "type": "uint8"
        }
      ],
      "stateMutability": "view",
      "type": "function"
    },
    {
      "inputs": [],
      "name": "owner",
      "outputs": [
        {
          "internalType": "address",
          "name": "",
          "type": "address"
        }
      ],
      "stateMutability": "view",
      "type": "function"
    },
    {
      "inputs": [],
      "name": "renounceOwnership",
      "outputs": [],
      "stateMutability": "nonpayable",
      "type": "function"
    },
    {
      "inputs": [
        {
          "internalType": "uint256",
          "name": "_policyId",
          "type": "uint256"
        },
        {
          "internalType": "string",
          "name": "_description",
          "type": "string"
        }
      ],
      "name": "submitClaim",
      "outputs": [],
      "stateMutability": "nonpayable",
      "type": "function"
    },
    {
      "inputs": [
        {
          "internalType": "address",
          "name": "newOwner",
          "type": "address"
        }
      ],
      "name": "transferOwnership",
      "outputs": [],
      "stateMutability": "nonpayable",
      "type": "function"
    },
    {
      "inputs": [
        {
          "internalType": "uint256",
          "name": "_claimId",
          "type": "uint256"
        },
        {
          "internalType": "enum ClaimContract.ClaimStatus",
          "name": "_status",
          "type": "uint8"
        }
      ],
      "name": "updateClaimStatus",
      "outputs": [],
      "stateMutability": "nonpayable",
      "type": "function"
    }
  ],
  "bytecode": "0x60806040523480156200001157600080fd5b5060405162001b1938038062001b19833981810160405281019062000037919062000336565b620000576200004b620000b060201b60201c565b620000b860201b60201c565b80600360006101000a81548173ffffffffffffffffffffffffffffffffffffffff021916908373ffffffffffffffffffffffffffffffffffffffff160217905550620000a9336200017c60201b60201c565b5062000483565b600033905090565b60008060009054906101000a900473ffffffffffffffffffffffffffffffffffffffff169050816000806101000a81548173ffffffffffffffffffffffffffffffffffffffff021916908373ffffffffffffffffffffffffffffffffffffffff1602179055508173ffffffffffffffffffffffffffffffffffffffff168173ffffffffffffffffffffffffffffffffffffffff167f8be0079c531659141344cd1fd0a4f28419497f9722a3daafe3b4186f6b6457e060405160405180910390a35050565b6200018c6200021260201b60201c565b600073ffffffffffffffffffffffffffffffffffffffff168173ffffffffffffffffffffffffffffffffffffffff1603620001fe576040517f08c379a0000000000000000000000000000000000000000000000000000000008152600401620001f590620003ef565b60405180910390fd5b6200020f81620000b860201b60201c565b50565b62000222620000b060201b60201c565b73ffffffffffffffffffffffffffffffffffffffff1662000248620002a360201b60201c565b73ffffffffffffffffffffffffffffffffffffffff1614620002a1576040517f08c379a0000000000000000000000000000000000000000000000000000000008152600401620002989062000461565b60405180910390fd5b565b60008060009054906101000a900473ffffffffffffffffffffffffffffffffffffffff16905090565b600080fd5b600073ffffffffffffffffffffffffffffffffffffffff82169050919050565b6000620002fe82620002d1565b9050919050565b6200031081620002f1565b81146200031c57600080fd5b50565b600081519050620003308162000305565b92915050565b6000602082840312156200034f576200034e620002cc565b5b60006200035f848285016200031f565b91505092915050565b600082825260208201905092915050565b7f4f776e61626c653a206e6577206f776e657220697320746865207a65726f206160008201527f6464726573730000000000000000000000000000000000000000000000000000602082015250565b6000620003d760268362000368565b9150620003e48262000379565b604082019050919050565b600060208201905081810360008301526200040a81620003c8565b9050919050565b7f4f776e61626c653a2063616c6c6572206973206e6f7420746865206f776e6572600082015250565b60006200044960208362000368565b9150620004568262000411565b602082019050919050565b600060208201905081810360008301526200047c816200043a565b9050919050565b61168680620004936000396000f3fe608060405234801561001057600080fd5b50600436106100625760003560e01c806345b46525146100675780635aef244714610083578063715018a6146100b65780638da5cb5b146100c0578063ab1f5b7c146100de578063f2fde38b146100fa575b600080fd5b610081600480360381019061007c9190610b04565b610116565b005b61009d60048036038101906100989190610b60565b6104c3565b6040516100ad9493929190610cd3565b60405180910390f35b6100be61064f565b005b6100c8610663565b6040516100d59190610d1f565b60405180910390f35b6100f860048036038101906100f39190610d5f565b61068c565b005b610114600480360381019061010f9190610dcb565b6107a7565b005b600082101561015a576040517f08c379a000000000000000000000000000000000000000000000000000000000815260040161015190610e44565b60405180910390fd5b600081511161019e576040517f08c379a000000000000000000000000000000000000000000000000000000000815260040161019590610eb0565b60405180910390fd5b600360009054906101000a900473ffffffffffffffffffffffffffffffffffffffff1673ffffffffffffffffffffffffffffffffffffffff16632b07fce3836040518263ffffffff1660e01b81526004016101f99190610ed0565b600060405180830381865afa158015610216573d6000803e3d6000fd5b505050506040513d6000823e3d601f19601f8201168201806040525081019061023f9190611002565b50505050503373ffffffffffffffffffffffffffffffffffffffff16610263610663565b73ffffffffffffffffffffffffffffffffffffffff16146102b9576040517f08c379a00000000000000000000000000000000000000000000000000000000081526004016102b09061110b565b60405180910390fd5b6040518060a0016040528060025481526020018381526020013373ffffffffffffffffffffffffffffffffffffffff1681526020018281526020016000600281111561030857610307610c5c565b5b815250600160006002548152602001908152602001600020600082015181600001556020820151816001015560408201518160020160006101000a81548173ffffffffffffffffffffffffffffffffffffffff021916908373ffffffffffffffffffffffffffffffffffffffff16021790555060608201518160030190816103909190611337565b5060808201518160040160006101000a81548160ff021916908360028111156103bc576103bb610c5c565b5b02179055509050503373ffffffffffffffffffffffffffffffffffffffff16826002547fbee96127fc856f54721f3e15c7d0f27a7947ed6c05f35a313ef16b5ae6653a838460405161040e9190611409565b60405180910390a4600360009054906101000a900473ffffffffffffffffffffffffffffffffffffffff1673ffffffffffffffffffffffffffffffffffffffff1663837f5746836002546040518363ffffffff1660e01b815260040161047592919061142b565b600060405180830381600087803b15801561048f57600080fd5b505af11580156104a3573d6000803e3d6000fd5b50505050600260008154809291906104ba90611483565b91905055505050565b6000806060600080600160008781526020019081526020016000209050600073ffffffffffffffffffffffffffffffffffffffff168160020160009054906101000a900473ffffffffffffffffffffffffffffffffffffffff1673ffffffffffffffffffffffffffffffffffffffff1603610573576040517f08c379a000000000000000000000000000000000000000000000000000000000815260040161056a90611517565b60405180910390fd5b80600101548160020160009054906101000a900473ffffffffffffffffffffffffffffffffffffffff16826003018360040160009054906101000a900460ff168180546105bf9061115a565b80601f01602080910402602001604051908101604052809291908181526020018280546105eb9061115a565b80156106385780601f1061060d57610100808354040283529160200191610638565b820191906000526020600020905b81548152906001019060200180831161061b57829003601f168201915b505050505091509450945094509450509193509193565b61065761082a565b61066160006108a8565b565b60008060009054906101000a900473ffffffffffffffffffffffffffffffffffffffff16905090565b61069461082a565b6000600160008481526020019081526020016000209050600073ffffffffffffffffffffffffffffffffffffffff168160020160009054906101000a900473ffffffffffffffffffffffffffffffffffffffff1673ffffffffffffffffffffffffffffffffffffffff160361073e576040517f08c379a000000000000000000000000000000000000000000000000000000000815260040161073590611517565b60405180910390fd5b818160040160006101000a81548160ff0219169083600281111561076557610764610c5c565b5b0217905550827f2e7de2377c1e6f85a268dbe00519c60d65c9e38570a118be0eb07feb07fc89be8360405161079a9190611537565b60405180910390a2505050565b6107af61082a565b600073ffffffffffffffffffffffffffffffffffffffff168173ffffffffffffffffffffffffffffffffffffffff160361081e576040517f08c379a0000000000000000000000000000000000000000000000000000000008152600401610815906115c4565b60405180910390fd5b610827816108a8565b50565b61083261096c565b73ffffffffffffffffffffffffffffffffffffffff16610850610663565b73ffffffffffffffffffffffffffffffffffffffff16146108a6576040517f08c379a000000000000000000000000000000000000000000000000000000000815260040161089d90611630565b60405180910390fd5b565b60008060009054906101000a900473ffffffffffffffffffffffffffffffffffffffff169050816000806101000a81548173ffffffffffffffffffffffffffffffffffffffff021916908373ffffffffffffffffffffffffffffffffffffffff1602179055508173ffffffffffffffffffffffffffffffffffffffff168173ffffffffffffffffffffffffffffffffffffffff167f8be0079c531659141344cd1fd0a4f28419497f9722a3daafe3b4186f6b6457e060405160405180910390a35050565b600033905090565b6000604051905090565b600080fd5b600080fd5b6000819050919050565b61099b81610988565b81146109a657600080fd5b50565b6000813590506109b881610992565b92915050565b600080fd5b600080fd5b6000601f19601f8301169050919050565b7f4e487b7100000000000000000000000000000000000000000000000000000000600052604160045260246000fd5b610a11826109c8565b810181811067ffffffffffffffff82111715610a3057610a2f6109d9565b5b80604052505050565b6000610a43610974565b9050610a4f8282610a08565b919050565b600067ffffffffffffffff821115610a6f57610a6e6109d9565b5b610a78826109c8565b9050602081019050919050565b82818337600083830152505050565b6000610aa7610aa284610a54565b610a39565b905082815260208101848484011115610ac357610ac26109c3565b5b610ace848285610a85565b509392505050565b600082601f830112610aeb57610aea6109be565b5b8135610afb848260208601610a94565b91505092915050565b60008060408385031215610b1b57610b1a61097e565b5b6000610b29858286016109a9565b925050602083013567ffffffffffffffff811115610b4a57610b49610983565b5b610b5685828601610ad6565b9150509250929050565b600060208284031215610b7657610b7561097e565b5b6000610b84848285016109a9565b91505092915050565b610b9681610988565b82525050565b600073ffffffffffffffffffffffffffffffffffffffff82169050919050565b6000610bc782610b9c565b9050919050565b610bd781610bbc565b82525050565b600081519050919050565b600082825260208201905092915050565b60005b83811015610c17578082015181840152602081019050610bfc565b60008484015250505050565b6000610c2e82610bdd565b610c388185610be8565b9350610c48818560208601610bf9565b610c51816109c8565b840191505092915050565b7f4e487b7100000000000000000000000000000000000000000000000000000000600052602160045260246000fd5b60038110610c9c57610c9b610c5c565b5b50565b6000819050610cad82610c8b565b919050565b6000610cbd82610c9f565b9050919050565b610ccd81610cb2565b82525050565b6000608082019050610ce86000830187610b8d565b610cf56020830186610bce565b8181036040830152610d078185610c23565b9050610d166060830184610cc4565b95945050505050565b6000602082019050610d346000830184610bce565b92915050565b60038110610d4757600080fd5b50565b600081359050610d5981610d3a565b92915050565b60008060408385031215610d7657610d7561097e565b5b6000610d84858286016109a9565b9250506020610d9585828601610d4a565b9150509250929050565b610da881610bbc565b8114610db357600080fd5b50565b600081359050610dc581610d9f565b92915050565b600060208284031215610de157610de061097e565b5b6000610def84828501610db6565b91505092915050565b7f496e76616c696420706f6c696379204944000000000000000000000000000000600082015250565b6000610e2e601183610be8565b9150610e3982610df8565b602082019050919050565b60006020820190508181036000830152610e5d81610e21565b9050919050565b7f4465736372697074696f6e2063616e6e6f7420626520656d7074790000000000600082015250565b6000610e9a601b83610be8565b9150610ea582610e64565b602082019050919050565b60006020820190508181036000830152610ec981610e8d565b9050919050565b6000602082019050610ee56000830184610b8d565b92915050565b600081519050610efa81610992565b92915050565b600081519050610f0f81610d9f565b92915050565b60028110610f2257600080fd5b50565b600081519050610f3481610f15565b92915050565b600067ffffffffffffffff821115610f5557610f546109d9565b5b602082029050602081019050919050565b600080fd5b6000610f7e610f7984610f3a565b610a39565b90508083825260208201905060208402830185811115610fa157610fa0610f66565b5b835b81811015610fca5780610fb68882610eeb565b845260208401935050602081019050610fa3565b5050509392505050565b600082601f830112610fe957610fe86109be565b5b8151610ff9848260208601610f6b565b91505092915050565b600080600080600060a0868803121561101e5761101d61097e565b5b600061102c88828901610eeb565b955050602061103d88828901610f00565b945050604061104e88828901610eeb565b935050606061105f88828901610f25565b925050608086015167ffffffffffffffff8111156110805761107f610983565b5b61108c88828901610fd4565b9150509295509295909350565b7f4f6e6c7920636f6e7472616374206f776e65722063616e207375626d6974206360008201527f6c61696d73000000000000000000000000000000000000000000000000000000602082015250565b60006110f5602583610be8565b915061110082611099565b604082019050919050565b60006020820190508181036000830152611124816110e8565b9050919050565b7f4e487b7100000000000000000000000000000000000000000000000000000000600052602260045260246000fd5b6000600282049050600182168061117257607f821691505b6020821081036111855761118461112b565b5b50919050565b60008190508160005260206000209050919050565b60006020601f8301049050919050565b600082821b905092915050565b6000600883026111ed7fffffffffffffffffffffffffffffffffffffffffffffffffffffffffffffffff826111b0565b6111f786836111b0565b95508019841693508086168417925050509392505050565b6000819050919050565b600061123461122f61122a84610988565b61120f565b610988565b9050919050565b6000819050919050565b61124e83611219565b61126261125a8261123b565b8484546111bd565b825550505050565b600090565b61127761126a565b611282818484611245565b505050565b5b818110156112a65761129b60008261126f565b600181019050611288565b5050565b601f8211156112eb576112bc8161118b565b6112c5846111a0565b810160208510156112d4578190505b6112e86112e0856111a0565b830182611287565b50505b505050565b600082821c905092915050565b600061130e600019846008026112f0565b1980831691505092915050565b600061132783836112fd565b9150826002028217905092915050565b61134082610bdd565b67ffffffffffffffff811115611359576113586109d9565b5b611363825461115a565b61136e8282856112aa565b600060209050601f8311600181146113a1576000841561138f578287015190505b611399858261131b565b865550611401565b601f1984166113af8661118b565b60005b828110156113d7578489015182556001820191506020850194506020810190506113b2565b868310156113f457848901516113f0601f8916826112fd565b8355505b6001600288020188555050505b505050505050565b600060208201905081810360008301526114238184610c23565b905092915050565b60006040820190506114406000830185610b8d565b61144d6020830184610b8d565b9392505050565b7f4e487b7100000000000000000000000000000000000000000000000000000000600052601160045260246000fd5b600061148e82610988565b91507fffffffffffffffffffffffffffffffffffffffffffffffffffffffffffffffff82036114c0576114bf611454565b5b600182019050919050565b7f436c61696d20646f6573206e6f74206578697374000000000000000000000000600082015250565b6000611501601483610be8565b915061150c826114cb565b602082019050919050565b60006020820190508181036000830152611530816114f4565b9050919050565b600060208201905061154c6000830184610cc4565b92915050565b7f4f776e61626c653a206e6577206f776e657220697320746865207a65726f206160008201527f6464726573730000000000000000000000000000000000000000000000000000602082015250565b60006115ae602683610be8565b91506115b982611552565b604082019050919050565b600060208201905081810360008301526115dd816115a1565b9050919050565b7f4f776e61626c653a2063616c6c6572206973206e6f7420746865206f776e6572600082015250565b600061161a602083610be8565b9150611625826115e4565b602082019050919050565b600060208201905081810360008301526116498161160d565b905091905056fea26469706673582212200c8139ed5a2ec8153380ccb8810b4adc99592350936b495d2c6edce7e06c622264736f6c63430008120033",
  "linkReferences": {},
  "deployedLinkReferences": {}
}