{
  "_format": "hh-sol-artifact-1",
  "contractName": "InsurancePolicyContract",
  "sourceName": "contracts/InsurancePolicyContract.sol",
  "abi": [
    {
      "inputs": [],
      "stateMutability": "nonpayable",
      "type": "constructor"
    },
    {
      "anonymous": false,
      "inputs": [
        {
          "indexed": true,
          "internalType": "uint256",
          "name": "policyId",
          "type": "uint256"
        },
        {
          "indexed": true,
          "internalType": "uint256",
          "name": "claimId",
          "type": "uint256"
        }
      ],
      "name": "ClaimAssociated",
      "type": "event"
    },
    {
      "anonymous": false,
      "inputs": [
        {
          "indexed": true,
          "internalType": "address",
          "name": "previousOwner",
          "type": "address"
        },
        {
          "indexed": true,
          "internalType": "address",
          "name": "newOwner",
          "type": "address"
        }
      ],
      "name": "OwnershipTransferred",
      "type": "event"
    },
    {
      "anonymous": false,
      "inputs": [
        {
          "indexed": true,
          "internalType": "uint256",
          "name": "policyId",
          "type": "uint256"
        },
        {
          "indexed": true,
          "internalType": "address",
          "name": "owner",
          "type": "address"
        },
        {
          "indexed": false,
          "internalType": "uint256",
          "name": "premiumAmount",
          "type": "uint256"
        }
      ],
      "name": "PolicyCreated",
      "type": "event"
    },
    {
      "anonymous": false,
      "inputs": [
        {
          "indexed": true,
          "internalType": "uint256",
          "name": "policyId",
          "type": "uint256"
        },
        {
          "indexed": false,
          "internalType": "enum InsurancePolicyContract.PolicyStatus",
          "name": "status",
          "type": "uint8"
        }
      ],
      "name": "PolicyStatusUpdated",
      "type": "event"
    },
    {
      "inputs": [
        {
          "internalType": "uint256",
          "name": "_policyId",
          "type": "uint256"
        },
        {
          "internalType": "uint256",
          "name": "_claimId",
          "type": "uint256"
        }
      ],
      "name": "associateClaim",
      "outputs": [],
      "stateMutability": "nonpayable",
      "type": "function"
    },
    {
      "inputs": [
        {
          "internalType": "uint256",
          "name": "_premiumAmount",
          "type": "uint256"
        }
      ],
      "name": "createPolicy",
      "outputs": [],
      "stateMutability": "nonpayable",
      "type": "function"
    },
    {
      "inputs": [
        {
          "internalType": "uint256",
          "name": "_policyId",
          "type": "uint256"
        }
      ],
      "name": "getPolicy",
      "outputs": [
        {
          "internalType": "uint256",
          "name": "policyId",
          "type": "uint256"
        },
        {
          "internalType": "address",
          "name": "owner",
          "type": "address"
        },
        {
          "internalType": "uint256",
          "name": "premiumAmount",
          "type": "uint256"
        },
        {
          "internalType": "enum InsurancePolicyContract.PolicyStatus",
          "name": "status",
          "type": "uint8"
        },
        {
          "internalType": "uint256[]",
          "name": "claimIds",
          "type": "uint256[]"
        }
      ],
      "stateMutability": "view",
      "type": "function"
    },
    {
      "inputs": [],
      "name": "owner",
      "outputs": [
        {
          "internalType": "address",
          "name": "",
          "type": "address"
        }
      ],
      "stateMutability": "view",
      "type": "function"
    },
    {
      "inputs": [],
      "name": "renounceOwnership",
      "outputs": [],
      "stateMutability": "nonpayable",
      "type": "function"
    },
    {
      "inputs": [
        {
          "internalType": "address",
          "name": "newOwner",
          "type": "address"
        }
      ],
      "name": "transferOwnership",
      "outputs": [],
      "stateMutability": "nonpayable",
      "type": "function"
    },
    {
      "inputs": [
        {
          "internalType": "uint256",
          "name": "_policyId",
          "type": "uint256"
        },
        {
          "internalType": "enum InsurancePolicyContract.PolicyStatus",
          "name": "_status",
          "type": "uint8"
        }
      ],
      "name": "updatePolicyStatus",
      "outputs": [],
      "stateMutability": "nonpayable",
      "type": "function"
    }
  ],
  "bytecode": "0x60806040523480156200001157600080fd5b5062000032620000266200004960201b60201c565b6200005160201b60201c565b62000043336200011560201b60201c565b62000380565b600033905090565b60008060009054906101000a900473ffffffffffffffffffffffffffffffffffffffff169050816000806101000a81548173ffffffffffffffffffffffffffffffffffffffff021916908373ffffffffffffffffffffffffffffffffffffffff1602179055508173ffffffffffffffffffffffffffffffffffffffff168173ffffffffffffffffffffffffffffffffffffffff167f8be0079c531659141344cd1fd0a4f28419497f9722a3daafe3b4186f6b6457e060405160405180910390a35050565b62000125620001ab60201b60201c565b600073ffffffffffffffffffffffffffffffffffffffff168173ffffffffffffffffffffffffffffffffffffffff160362000197576040517f08c379a00000000000000000000000000000000000000000000000000000000081526004016200018e90620002ec565b60405180910390fd5b620001a8816200005160201b60201c565b50565b620001bb6200004960201b60201c565b73ffffffffffffffffffffffffffffffffffffffff16620001e16200023c60201b60201c565b73ffffffffffffffffffffffffffffffffffffffff16146200023a576040517f08c379a000000000000000000000000000000000000000000000000000000000815260040162000231906200035e565b60405180910390fd5b565b60008060009054906101000a900473ffffffffffffffffffffffffffffffffffffffff16905090565b600082825260208201905092915050565b7f4f776e61626c653a206e6577206f776e657220697320746865207a65726f206160008201527f6464726573730000000000000000000000000000000000000000000000000000602082015250565b6000620002d460268362000265565b9150620002e18262000276565b604082019050919050565b600060208201905081810360008301526200030781620002c5565b9050919050565b7f4f776e61626c653a2063616c6c6572206973206e6f7420746865206f776e6572600082015250565b60006200034660208362000265565b915062000353826200030e565b602082019050919050565b60006020820190508181036000830152620003798162000337565b9050919050565b610f3880620003906000396000f3fe608060405234801561001057600080fd5b506004361061007d5760003560e01c8063837f57461161005b578063837f5746146100dc5780638da5cb5b146100f8578063b963a5d114610116578063f2fde38b146101325761007d565b806304bd12bb146100825780632b07fce31461009e578063715018a6146100d2575b600080fd5b61009c600480360381019061009791906108f4565b61014e565b005b6100b860048036038101906100b391906108f4565b610358565b6040516100c9959493929190610aa6565b60405180910390f35b6100da610422565b005b6100f660048036038101906100f19190610b00565b610436565b005b61010061053e565b60405161010d9190610b40565b60405180910390f35b610130600480360381019061012b9190610b80565b610567565b005b61014c60048036038101906101479190610bec565b610682565b005b60008111610191576040517f08c379a000000000000000000000000000000000000000000000000000000000815260040161018890610c9c565b60405180910390fd5b6040518060a0016040528060025481526020013373ffffffffffffffffffffffffffffffffffffffff168152602001828152602001600060018111156101da576101d9610971565b5b8152602001600067ffffffffffffffff8111156101fa576101f9610cbc565b5b6040519080825280602002602001820160405280156102285781602001602082028036833780820191505090505b508152506001600060025481526020019081526020016000206000820151816000015560208201518160010160006101000a81548173ffffffffffffffffffffffffffffffffffffffff021916908373ffffffffffffffffffffffffffffffffffffffff1602179055506040820151816002015560608201518160030160006101000a81548160ff021916908360018111156102c7576102c6610971565b5b021790555060808201518160040190805190602001906102e892919061084f565b509050503373ffffffffffffffffffffffffffffffffffffffff166002547f601882301d3e3fce7fe3a99d4bb17ef5b6699b417bdd29f2bfb82e19fcbcb660836040516103359190610ceb565b60405180910390a36002600081548092919061035090610d35565b919050555050565b6000806000806060600060016000888152602001908152602001600020905080600001548160010160009054906101000a900473ffffffffffffffffffffffffffffffffffffffff1682600201548360030160009054906101000a900460ff16846004018080548060200260200160405190810160405280929190818152602001828054801561040757602002820191906000526020600020905b8154815260200190600101908083116103f3575b50505050509050955095509550955095505091939590929450565b61042a610705565b6104346000610783565b565b6000600160008481526020019081526020016000209050600073ffffffffffffffffffffffffffffffffffffffff168160010160009054906101000a900473ffffffffffffffffffffffffffffffffffffffff1673ffffffffffffffffffffffffffffffffffffffff16036104e0576040517f08c379a00000000000000000000000000000000000000000000000000000000081526004016104d790610dc9565b60405180910390fd5b8060040182908060018154018082558091505060019003906000526020600020016000909190919091505581837f6209d5e57427b535a493ae090f045c5a41900a11fa9105e1a4753629e410d33260405160405180910390a3505050565b60008060009054906101000a900473ffffffffffffffffffffffffffffffffffffffff16905090565b61056f610705565b6000600160008481526020019081526020016000209050600073ffffffffffffffffffffffffffffffffffffffff168160010160009054906101000a900473ffffffffffffffffffffffffffffffffffffffff1673ffffffffffffffffffffffffffffffffffffffff1603610619576040517f08c379a000000000000000000000000000000000000000000000000000000000815260040161061090610dc9565b60405180910390fd5b818160030160006101000a81548160ff021916908360018111156106405761063f610971565b5b0217905550827fddba6ca814ce3f0cb8c9b4b44e5e1891ef8c2857746e6b7453464abc1539209b836040516106759190610de9565b60405180910390a2505050565b61068a610705565b600073ffffffffffffffffffffffffffffffffffffffff168173ffffffffffffffffffffffffffffffffffffffff16036106f9576040517f08c379a00000000000000000000000000000000000000000000000000000000081526004016106f090610e76565b60405180910390fd5b61070281610783565b50565b61070d610847565b73ffffffffffffffffffffffffffffffffffffffff1661072b61053e565b73ffffffffffffffffffffffffffffffffffffffff1614610781576040517f08c379a000000000000000000000000000000000000000000000000000000000815260040161077890610ee2565b60405180910390fd5b565b60008060009054906101000a900473ffffffffffffffffffffffffffffffffffffffff169050816000806101000a81548173ffffffffffffffffffffffffffffffffffffffff021916908373ffffffffffffffffffffffffffffffffffffffff1602179055508173ffffffffffffffffffffffffffffffffffffffff168173ffffffffffffffffffffffffffffffffffffffff167f8be0079c531659141344cd1fd0a4f28419497f9722a3daafe3b4186f6b6457e060405160405180910390a35050565b600033905090565b82805482825590600052602060002090810192821561088b579160200282015b8281111561088a57825182559160200191906001019061086f565b5b509050610898919061089c565b5090565b5b808211156108b557600081600090555060010161089d565b5090565b600080fd5b6000819050919050565b6108d1816108be565b81146108dc57600080fd5b50565b6000813590506108ee816108c8565b92915050565b60006020828403121561090a576109096108b9565b5b6000610918848285016108df565b91505092915050565b61092a816108be565b82525050565b600073ffffffffffffffffffffffffffffffffffffffff82169050919050565b600061095b82610930565b9050919050565b61096b81610950565b82525050565b7f4e487b7100000000000000000000000000000000000000000000000000000000600052602160045260246000fd5b600281106109b1576109b0610971565b5b50565b60008190506109c2826109a0565b919050565b60006109d2826109b4565b9050919050565b6109e2816109c7565b82525050565b600081519050919050565b600082825260208201905092915050565b6000819050602082019050919050565b610a1d816108be565b82525050565b6000610a2f8383610a14565b60208301905092915050565b6000602082019050919050565b6000610a53826109e8565b610a5d81856109f3565b9350610a6883610a04565b8060005b83811015610a99578151610a808882610a23565b9750610a8b83610a3b565b925050600181019050610a6c565b5085935050505092915050565b600060a082019050610abb6000830188610921565b610ac86020830187610962565b610ad56040830186610921565b610ae260608301856109d9565b8181036080830152610af48184610a48565b90509695505050505050565b60008060408385031215610b1757610b166108b9565b5b6000610b25858286016108df565b9250506020610b36858286016108df565b9150509250929050565b6000602082019050610b556000830184610962565b92915050565b60028110610b6857600080fd5b50565b600081359050610b7a81610b5b565b92915050565b60008060408385031215610b9757610b966108b9565b5b6000610ba5858286016108df565b9250506020610bb685828601610b6b565b9150509250929050565b610bc981610950565b8114610bd457600080fd5b50565b600081359050610be681610bc0565b92915050565b600060208284031215610c0257610c016108b9565b5b6000610c1084828501610bd7565b91505092915050565b600082825260208201905092915050565b7f5072656d69756d20616d6f756e74206d7573742062652067726561746572207460008201527f68616e207a65726f000000000000000000000000000000000000000000000000602082015250565b6000610c86602883610c19565b9150610c9182610c2a565b604082019050919050565b60006020820190508181036000830152610cb581610c79565b9050919050565b7f4e487b7100000000000000000000000000000000000000000000000000000000600052604160045260246000fd5b6000602082019050610d006000830184610921565b92915050565b7f4e487b7100000000000000000000000000000000000000000000000000000000600052601160045260246000fd5b6000610d40826108be565b91507fffffffffffffffffffffffffffffffffffffffffffffffffffffffffffffffff8203610d7257610d71610d06565b5b600182019050919050565b7f506f6c69637920646f6573206e6f742065786973740000000000000000000000600082015250565b6000610db3601583610c19565b9150610dbe82610d7d565b602082019050919050565b60006020820190508181036000830152610de281610da6565b9050919050565b6000602082019050610dfe60008301846109d9565b92915050565b7f4f776e61626c653a206e6577206f776e657220697320746865207a65726f206160008201527f6464726573730000000000000000000000000000000000000000000000000000602082015250565b6000610e60602683610c19565b9150610e6b82610e04565b604082019050919050565b60006020820190508181036000830152610e8f81610e53565b9050919050565b7f4f776e61626c653a2063616c6c6572206973206e6f7420746865206f776e6572600082015250565b6000610ecc602083610c19565b9150610ed782610e96565b602082019050919050565b60006020820190508181036000830152610efb81610ebf565b905091905056fea2646970667358221220abf755e5a85ee528a851d81bf171cc3da25e9da097835df9b07b21ebb5ae6bd564736f6c63430008120033",
  "linkReferences": {},
  "deployedLinkReferences": {}
}