{
  "_format": "hh-sol-artifact-1",
  "contractName": "VehicleContract",
  "sourceName": "contracts/VehicleContract.sol",
  "abi": [
    {
      "anonymous": false,
      "inputs": [
        {
          "indexed": true,
          "internalType": "address",
          "name": "previousOwner",
          "type": "address"
        },
        {
          "indexed": true,
          "internalType": "address",
          "name": "newOwner",
          "type": "address"
        }
      ],
      "name": "OwnershipTransferred",
      "type": "event"
    },
    {
      "anonymous": false,
      "inputs": [
        {
          "indexed": true,
          "internalType": "address",
          "name": "owner",
          "type": "address"
        },
        {
          "indexed": false,
          "internalType": "string",
          "name": "licensePlate",
          "type": "string"
        }
      ],
      "name": "VehicleCreated",
      "type": "event"
    },
    {
      "inputs": [
        {
          "internalType": "string",
          "name": "_licensePlate",
          "type": "string"
        }
      ],
      "name": "createVehicle",
      "outputs": [],
      "stateMutability": "nonpayable",
      "type": "function"
    },
    {
      "inputs": [
        {
          "internalType": "address",
          "name": "_owner",
          "type": "address"
        }
      ],
      "name": "getVehicle",
      "outputs": [
        {
          "internalType": "string",
          "name": "",
          "type": "string"
        }
      ],
      "stateMutability": "view",
      "type": "function"
    },
    {
      "inputs": [],
      "name": "owner",
      "outputs": [
        {
          "internalType": "address",
          "name": "",
          "type": "address"
        }
      ],
      "stateMutability": "view",
      "type": "function"
    },
    {
      "inputs": [],
      "name": "renounceOwnership",
      "outputs": [],
      "stateMutability": "nonpayable",
      "type": "function"
    },
    {
      "inputs": [
        {
          "internalType": "address",
          "name": "newOwner",
          "type": "address"
        }
      ],
      "name": "transferOwnership",
      "outputs": [],
      "stateMutability": "nonpayable",
      "type": "function"
    },
    {
      "inputs": [
        {
          "internalType": "string",
          "name": "_licensePlate",
          "type": "string"
        }
      ],
      "name": "updateLicensePlate",
      "outputs": [],
      "stateMutability": "nonpayable",
      "type": "function"
    },
    {
      "inputs": [
        {
          "internalType": "address",
          "name": "_owner",
          "type": "address"
        }
      ],
      "name": "vehicleExists",
      "outputs": [
        {
          "internalType": "bool",
          "name": "",
          "type": "bool"
        }
      ],
      "stateMutability": "view",
      "type": "function"
    }
  ],
  "bytecode": "0x608060405234801561001057600080fd5b5061002d61002261003260201b60201c565b61003a60201b60201c565b6100fe565b600033905090565b60008060009054906101000a900473ffffffffffffffffffffffffffffffffffffffff169050816000806101000a81548173ffffffffffffffffffffffffffffffffffffffff021916908373ffffffffffffffffffffffffffffffffffffffff1602179055508173ffffffffffffffffffffffffffffffffffffffff168173ffffffffffffffffffffffffffffffffffffffff167f8be0079c531659141344cd1fd0a4f28419497f9722a3daafe3b4186f6b6457e060405160405180910390a35050565b610f498061010d6000396000f3fe608060405234801561001057600080fd5b506004361061007d5760003560e01c80638da5cb5b1161005b5780638da5cb5b146100d8578063a93ab101146100f6578063cb99ce7f14610126578063f2fde38b146101425761007d565b80632132730e14610082578063481a1cbf1461009e578063715018a6146100ce575b600080fd5b61009c60048036038101906100979190610814565b61015e565b005b6100b860048036038101906100b391906108bb565b6102a3565b6040516100c59190610903565b60405180910390f35b6100d66102fd565b005b6100e0610311565b6040516100ed919061092d565b60405180910390f35b610110600480360381019061010b91906108bb565b61033a565b60405161011d91906109c7565b60405180910390f35b610140600480360381019061013b9190610814565b61040e565b005b61015c600480360381019061015791906108bb565b6104ed565b005b60008151116101a2576040517f08c379a000000000000000000000000000000000000000000000000000000000815260040161019990610a35565b60405180910390fd5b6101ab336102a3565b156101eb576040517f08c379a00000000000000000000000000000000000000000000000000000000081526004016101e290610aa1565b60405180910390fd5b604051806020016040528082815250600160003373ffffffffffffffffffffffffffffffffffffffff1673ffffffffffffffffffffffffffffffffffffffff168152602001908152602001600020600082015181600001908161024e9190610cd7565b509050503373ffffffffffffffffffffffffffffffffffffffff167f88f60b883841588cd8e3c5c48abe8237e5b557bb0cfab48c8bcde62fcf97966a8260405161029891906109c7565b60405180910390a250565b600080600160008473ffffffffffffffffffffffffffffffffffffffff1673ffffffffffffffffffffffffffffffffffffffff16815260200190815260200160002060000180546102f390610af0565b9050119050919050565b610305610570565b61030f60006105ee565b565b60008060009054906101000a900473ffffffffffffffffffffffffffffffffffffffff16905090565b6060600160008373ffffffffffffffffffffffffffffffffffffffff1673ffffffffffffffffffffffffffffffffffffffff168152602001908152602001600020600001805461038990610af0565b80601f01602080910402602001604051908101604052809291908181526020018280546103b590610af0565b80156104025780601f106103d757610100808354040283529160200191610402565b820191906000526020600020905b8154815290600101906020018083116103e557829003601f168201915b50505050509050919050565b6000815111610452576040517f08c379a000000000000000000000000000000000000000000000000000000000815260040161044990610a35565b60405180910390fd5b61045b336102a3565b61049a576040517f08c379a000000000000000000000000000000000000000000000000000000000815260040161049190610df5565b60405180910390fd5b80600160003373ffffffffffffffffffffffffffffffffffffffff1673ffffffffffffffffffffffffffffffffffffffff16815260200190815260200160002060000190816104e99190610cd7565b5050565b6104f5610570565b600073ffffffffffffffffffffffffffffffffffffffff168173ffffffffffffffffffffffffffffffffffffffff1603610564576040517f08c379a000000000000000000000000000000000000000000000000000000000815260040161055b90610e87565b60405180910390fd5b61056d816105ee565b50565b6105786106b2565b73ffffffffffffffffffffffffffffffffffffffff16610596610311565b73ffffffffffffffffffffffffffffffffffffffff16146105ec576040517f08c379a00000000000000000000000000000000000000000000000000000000081526004016105e390610ef3565b60405180910390fd5b565b60008060009054906101000a900473ffffffffffffffffffffffffffffffffffffffff169050816000806101000a81548173ffffffffffffffffffffffffffffffffffffffff021916908373ffffffffffffffffffffffffffffffffffffffff1602179055508173ffffffffffffffffffffffffffffffffffffffff168173ffffffffffffffffffffffffffffffffffffffff167f8be0079c531659141344cd1fd0a4f28419497f9722a3daafe3b4186f6b6457e060405160405180910390a35050565b600033905090565b6000604051905090565b600080fd5b600080fd5b600080fd5b600080fd5b6000601f19601f8301169050919050565b7f4e487b7100000000000000000000000000000000000000000000000000000000600052604160045260246000fd5b610721826106d8565b810181811067ffffffffffffffff821117156107405761073f6106e9565b5b80604052505050565b60006107536106ba565b905061075f8282610718565b919050565b600067ffffffffffffffff82111561077f5761077e6106e9565b5b610788826106d8565b9050602081019050919050565b82818337600083830152505050565b60006107b76107b284610764565b610749565b9050828152602081018484840111156107d3576107d26106d3565b5b6107de848285610795565b509392505050565b600082601f8301126107fb576107fa6106ce565b5b813561080b8482602086016107a4565b91505092915050565b60006020828403121561082a576108296106c4565b5b600082013567ffffffffffffffff811115610848576108476106c9565b5b610854848285016107e6565b91505092915050565b600073ffffffffffffffffffffffffffffffffffffffff82169050919050565b60006108888261085d565b9050919050565b6108988161087d565b81146108a357600080fd5b50565b6000813590506108b58161088f565b92915050565b6000602082840312156108d1576108d06106c4565b5b60006108df848285016108a6565b91505092915050565b60008115159050919050565b6108fd816108e8565b82525050565b600060208201905061091860008301846108f4565b92915050565b6109278161087d565b82525050565b6000602082019050610942600083018461091e565b92915050565b600081519050919050565b600082825260208201905092915050565b60005b83811015610982578082015181840152602081019050610967565b60008484015250505050565b600061099982610948565b6109a38185610953565b93506109b3818560208601610964565b6109bc816106d8565b840191505092915050565b600060208201905081810360008301526109e1818461098e565b905092915050565b7f4c6963656e736520706c6174652063616e6e6f7420626520656d707479000000600082015250565b6000610a1f601d83610953565b9150610a2a826109e9565b602082019050919050565b60006020820190508181036000830152610a4e81610a12565b9050919050565b7f56656869636c6520616c72656164792065786973747300000000000000000000600082015250565b6000610a8b601683610953565b9150610a9682610a55565b602082019050919050565b60006020820190508181036000830152610aba81610a7e565b9050919050565b7f4e487b7100000000000000000000000000000000000000000000000000000000600052602260045260246000fd5b60006002820490506001821680610b0857607f821691505b602082108103610b1b57610b1a610ac1565b5b50919050565b60008190508160005260206000209050919050565b60006020601f8301049050919050565b600082821b905092915050565b600060088302610b837fffffffffffffffffffffffffffffffffffffffffffffffffffffffffffffffff82610b46565b610b8d8683610b46565b95508019841693508086168417925050509392505050565b6000819050919050565b6000819050919050565b6000610bd4610bcf610bca84610ba5565b610baf565b610ba5565b9050919050565b6000819050919050565b610bee83610bb9565b610c02610bfa82610bdb565b848454610b53565b825550505050565b600090565b610c17610c0a565b610c22818484610be5565b505050565b5b81811015610c4657610c3b600082610c0f565b600181019050610c28565b5050565b601f821115610c8b57610c5c81610b21565b610c6584610b36565b81016020851015610c74578190505b610c88610c8085610b36565b830182610c27565b50505b505050565b600082821c905092915050565b6000610cae60001984600802610c90565b1980831691505092915050565b6000610cc78383610c9d565b9150826002028217905092915050565b610ce082610948565b67ffffffffffffffff811115610cf957610cf86106e9565b5b610d038254610af0565b610d0e828285610c4a565b600060209050601f831160018114610d415760008415610d2f578287015190505b610d398582610cbb565b865550610da1565b601f198416610d4f86610b21565b60005b82811015610d7757848901518255600182019150602085019450602081019050610d52565b86831015610d945784890151610d90601f891682610c9d565b8355505b6001600288020188555050505b505050505050565b7f56656869636c6520646f6573206e6f7420657869737400000000000000000000600082015250565b6000610ddf601683610953565b9150610dea82610da9565b602082019050919050565b60006020820190508181036000830152610e0e81610dd2565b9050919050565b7f4f776e61626c653a206e6577206f776e657220697320746865207a65726f206160008201527f6464726573730000000000000000000000000000000000000000000000000000602082015250565b6000610e71602683610953565b9150610e7c82610e15565b604082019050919050565b60006020820190508181036000830152610ea081610e64565b9050919050565b7f4f776e61626c653a2063616c6c6572206973206e6f7420746865206f776e6572600082015250565b6000610edd602083610953565b9150610ee882610ea7565b602082019050919050565b60006020820190508181036000830152610f0c81610ed0565b905091905056fea26469706673582212206a41f3cc322bd62c69013c06459bce10e68ee26fdb6eca201a4d373c014572fb64736f6c63430008120033",
  "linkReferences": {},
  "deployedLinkReferences": {}
}